{
  "_format": "hh-sol-artifact-1",
  "contractName": "SecureNotes",
  "sourceName": "contracts/SecureNotes.sol",
  "abi": [
    {
      "inputs": [],
      "stateMutability": "nonpayable",
      "type": "constructor"
    },
    {
      "anonymous": false,
      "inputs": [
        {
          "indexed": true,
          "internalType": "uint256",
          "name": "id",
          "type": "uint256"
        },
        {
          "indexed": false,
          "internalType": "enum SecureNotes.IconType",
          "name": "iconType",
          "type": "uint8"
        },
        {
          "indexed": false,
          "internalType": "uint256",
          "name": "price",
          "type": "uint256"
        }
      ],
      "name": "IconAdded",
      "type": "event"
    },
    {
      "anonymous": false,
      "inputs": [
        {
          "indexed": true,
          "internalType": "uint256",
          "name": "id",
          "type": "uint256"
        },
        {
          "indexed": false,
          "internalType": "enum SecureNotes.IconType",
          "name": "iconType",
          "type": "uint8"
        },
        {
          "indexed": true,
          "internalType": "address",
          "name": "buyer",
          "type": "address"
        },
        {
          "indexed": true,
          "internalType": "address",
          "name": "recipient",
          "type": "address"
        },
        {
          "indexed": false,
          "internalType": "uint256",
          "name": "price",
          "type": "uint256"
        }
      ],
      "name": "IconPurchased",
      "type": "event"
    },
    {
      "anonymous": false,
      "inputs": [
        {
          "indexed": true,
          "internalType": "uint256",
          "name": "id",
          "type": "uint256"
        },
        {
          "indexed": true,
          "internalType": "address",
          "name": "deleter",
          "type": "address"
        }
      ],
      "name": "NoteDeleted",
      "type": "event"
    },
    {
      "anonymous": false,
      "inputs": [
        {
          "indexed": true,
          "internalType": "uint256",
          "name": "id",
          "type": "uint256"
        },
        {
          "indexed": true,
          "internalType": "address",
          "name": "reader",
          "type": "address"
        }
      ],
      "name": "NoteRead",
      "type": "event"
    },
    {
      "anonymous": false,
      "inputs": [
        {
          "indexed": true,
          "internalType": "uint256",
          "name": "id",
          "type": "uint256"
        },
        {
          "indexed": true,
          "internalType": "address",
          "name": "sender",
          "type": "address"
        },
        {
          "indexed": true,
          "internalType": "address",
          "name": "recipient",
          "type": "address"
        },
        {
          "indexed": false,
          "internalType": "uint256",
          "name": "timestamp",
          "type": "uint256"
        }
      ],
      "name": "NoteSent",
      "type": "event"
    },
    {
      "inputs": [
        {
          "internalType": "enum SecureNotes.IconType",
          "name": "_type",
          "type": "uint8"
        },
        {
          "internalType": "uint256",
          "name": "_price",
          "type": "uint256"
        }
      ],
      "name": "addIcon",
      "outputs": [],
      "stateMutability": "nonpayable",
      "type": "function"
    },
    {
      "inputs": [
        {
          "internalType": "uint256",
          "name": "_id",
          "type": "uint256"
        },
        {
          "internalType": "address",
          "name": "_recipient",
          "type": "address"
        }
      ],
      "name": "buyAndSendIcon",
      "outputs": [],
      "stateMutability": "payable",
      "type": "function"
    },
    {
      "inputs": [
        {
          "internalType": "uint256",
          "name": "_id",
          "type": "uint256"
        }
      ],
      "name": "deleteNote",
      "outputs": [],
      "stateMutability": "nonpayable",
      "type": "function"
    },
    {
      "inputs": [
        {
          "internalType": "uint256",
          "name": "_id",
          "type": "uint256"
        }
      ],
      "name": "getIcon",
      "outputs": [
        {
          "components": [
            {
              "internalType": "uint256",
              "name": "id",
              "type": "uint256"
            },
            {
              "internalType": "enum SecureNotes.IconType",
              "name": "iconType",
              "type": "uint8"
            },
            {
              "internalType": "uint256",
              "name": "price",
              "type": "uint256"
            },
            {
              "internalType": "bool",
              "name": "available",
              "type": "bool"
            }
          ],
          "internalType": "struct SecureNotes.Icon",
          "name": "",
          "type": "tuple"
        }
      ],
      "stateMutability": "view",
      "type": "function"
    },
    {
      "inputs": [],
      "name": "getMyReceivedIcons",
      "outputs": [
        {
          "components": [
            {
              "internalType": "uint256",
              "name": "iconId",
              "type": "uint256"
            },
            {
              "internalType": "address",
              "name": "sender",
              "type": "address"
            }
          ],
          "internalType": "struct SecureNotes.ReceivedIcon[]",
          "name": "",
          "type": "tuple[]"
        }
      ],
      "stateMutability": "view",
      "type": "function"
    },
    {
      "inputs": [
        {
          "internalType": "uint256",
          "name": "_id",
          "type": "uint256"
        }
      ],
      "name": "getNote",
      "outputs": [
        {
          "components": [
            {
              "internalType": "address",
              "name": "sender",
              "type": "address"
            },
            {
              "internalType": "address",
              "name": "recipient",
              "type": "address"
            },
            {
              "internalType": "string",
              "name": "encryptedContent",
              "type": "string"
            },
            {
              "internalType": "bool",
              "name": "isRead",
              "type": "bool"
            },
            {
              "internalType": "uint256",
              "name": "timestamp",
              "type": "uint256"
            },
            {
              "internalType": "bool",
              "name": "isDeleted",
              "type": "bool"
            }
          ],
          "internalType": "struct SecureNotes.Note",
          "name": "",
          "type": "tuple"
        }
      ],
      "stateMutability": "view",
      "type": "function"
    },
    {
      "inputs": [],
      "name": "iconCount",
      "outputs": [
        {
          "internalType": "uint256",
          "name": "",
          "type": "uint256"
        }
      ],
      "stateMutability": "view",
      "type": "function"
    },
    {
      "inputs": [],
      "name": "noteCount",
      "outputs": [
        {
          "internalType": "uint256",
          "name": "",
          "type": "uint256"
        }
      ],
      "stateMutability": "view",
      "type": "function"
    },
    {
      "inputs": [],
      "name": "owner",
      "outputs": [
        {
          "internalType": "address",
          "name": "",
          "type": "address"
        }
      ],
      "stateMutability": "view",
      "type": "function"
    },
    {
      "inputs": [
        {
          "internalType": "uint256",
          "name": "_id",
          "type": "uint256"
        }
      ],
      "name": "readEncryptedNote",
      "outputs": [
        {
          "internalType": "string",
          "name": "",
          "type": "string"
        }
      ],
      "stateMutability": "nonpayable",
      "type": "function"
    },
    {
      "inputs": [
        {
          "internalType": "address",
          "name": "_recipient",
          "type": "address"
        },
        {
          "internalType": "string",
          "name": "_encryptedContent",
          "type": "string"
        }
      ],
      "name": "sendEncryptedNote",
      "outputs": [],
      "stateMutability": "nonpayable",
      "type": "function"
    },
    {
      "inputs": [
        {
          "internalType": "uint256",
          "name": "_id",
          "type": "uint256"
        },
        {
          "internalType": "bool",
          "name": "_available",
          "type": "bool"
        }
      ],
      "name": "setIconAvailability",
      "outputs": [],
      "stateMutability": "nonpayable",
      "type": "function"
    },
    {
      "inputs": [
        {
          "internalType": "uint256",
          "name": "_id",
          "type": "uint256"
        },
        {
          "internalType": "uint256",
          "name": "_newPrice",
          "type": "uint256"
        }
      ],
      "name": "updateIconPrice",
      "outputs": [],
      "stateMutability": "nonpayable",
      "type": "function"
    },
    {
      "stateMutability": "payable",
      "type": "receive"
    }
  ],
  "bytecode": "0x60a060405234801561001057600080fd5b503373ffffffffffffffffffffffffffffffffffffffff1660808173ffffffffffffffffffffffffffffffffffffffff168152505060805161276361007c600039600081816109d701528181610ba501528181610e1501528181610ffe01526112ef01526127636000f3fe6080604052600436106100c65760003560e01c80638da5cb5b1161007f578063c47177f411610059578063c47177f4146102c0578063c760f4d1146102e9578063ca13b6dd14610312578063d506e7a11461032e57610106565b80638da5cb5b1461022f578063a965a9411461025a578063b60ace0f1461029757610106565b80632a1a54461461010b5780632d2b4a0114610148578063317a4c76146101735780633781b90b1461019e57806343f603d7146101c957806355173d7f1461020657610106565b36610106576040517f08c379a00000000000000000000000000000000000000000000000000000000081526004016100fd906115c9565b60405180910390fd5b600080fd5b34801561011757600080fd5b50610132600480360381019061012d9190611633565b610357565b60405161013f9190611756565b60405180910390f35b34801561015457600080fd5b5061015d6103ee565b60405161016a9190611780565b60405180910390f35b34801561017f57600080fd5b506101886103f4565b6040516101959190611780565b60405180910390f35b3480156101aa57600080fd5b506101b36103fa565b6040516101c091906118ba565b60405180910390f35b3480156101d557600080fd5b506101f060048036038101906101eb9190611633565b6104f6565b6040516101fd919061195b565b60405180910390f35b34801561021257600080fd5b5061022d60048036038101906102289190611ade565b61073a565b005b34801561023b57600080fd5b506102446109d5565b6040516102519190611b49565b60405180910390f35b34801561026657600080fd5b50610281600480360381019061027c9190611633565b6109f9565b60405161028e9190611c37565b60405180910390f35b3480156102a357600080fd5b506102be60048036038101906102b99190611c59565b610ba3565b005b3480156102cc57600080fd5b506102e760048036038101906102e29190611633565b610c93565b005b3480156102f557600080fd5b50610310600480360381019061030b9190611cc5565b610e13565b005b61032c60048036038101906103279190611d05565b610ed3565b005b34801561033a57600080fd5b5061035560048036038101906103509190611d6a565b6112ed565b005b61035f6114ca565b60026000838152602001908152602001600020604051806080016040529081600082015481526020016001820160009054906101000a900460ff1660038111156103ac576103ab61166f565b5b60038111156103be576103bd61166f565b5b8152602001600282015481526020016003820160009054906101000a900460ff1615151515815250509050919050565b60035481565b60015481565b6060600460003373ffffffffffffffffffffffffffffffffffffffff1673ffffffffffffffffffffffffffffffffffffffff168152602001908152602001600020805480602002602001604051908101604052809291908181526020016000905b828210156104ed5783829060005260206000209060020201604051806040016040529081600082015481526020016001820160009054906101000a900473ffffffffffffffffffffffffffffffffffffffff1673ffffffffffffffffffffffffffffffffffffffff1673ffffffffffffffffffffffffffffffffffffffff16815250508152602001906001019061045b565b50505050905090565b6060600080600084815260200190815260200160002090508060010160009054906101000a900473ffffffffffffffffffffffffffffffffffffffff1673ffffffffffffffffffffffffffffffffffffffff163373ffffffffffffffffffffffffffffffffffffffff16146105a0576040517f08c379a000000000000000000000000000000000000000000000000000000000815260040161059790611df6565b60405180910390fd5b8060050160009054906101000a900460ff16156105f2576040517f08c379a00000000000000000000000000000000000000000000000000000000081526004016105e990611e62565b60405180910390fd5b8060030160009054906101000a900460ff1615610644576040517f08c379a000000000000000000000000000000000000000000000000000000000815260040161063b90611ece565b60405180910390fd5b60018160030160006101000a81548160ff0219169083151502179055503373ffffffffffffffffffffffffffffffffffffffff16837fff07445769a7abc5be8997616ed438ea9cce629d71de75a2a86abf6d4188193b60405160405180910390a38060020180546106b490611f1d565b80601f01602080910402602001604051908101604052809291908181526020018280546106e090611f1d565b801561072d5780601f106107025761010080835404028352916020019161072d565b820191906000526020600020905b81548152906001019060200180831161071057829003601f168201915b5050505050915050919050565b600073ffffffffffffffffffffffffffffffffffffffff168273ffffffffffffffffffffffffffffffffffffffff16036107a9576040517f08c379a00000000000000000000000000000000000000000000000000000000081526004016107a090611f9a565b60405180910390fd5b60008151116107ed576040517f08c379a00000000000000000000000000000000000000000000000000000000081526004016107e490612006565b60405180910390fd5b6040518060c001604052803373ffffffffffffffffffffffffffffffffffffffff1681526020018373ffffffffffffffffffffffffffffffffffffffff16815260200182815260200160001515815260200142815260200160001515815250600080600154815260200190815260200160002060008201518160000160006101000a81548173ffffffffffffffffffffffffffffffffffffffff021916908373ffffffffffffffffffffffffffffffffffffffff16021790555060208201518160010160006101000a81548173ffffffffffffffffffffffffffffffffffffffff021916908373ffffffffffffffffffffffffffffffffffffffff160217905550604082015181600201908161090391906121d2565b5060608201518160030160006101000a81548160ff0219169083151502179055506080820151816004015560a08201518160050160006101000a81548160ff0219169083151502179055509050508173ffffffffffffffffffffffffffffffffffffffff163373ffffffffffffffffffffffffffffffffffffffff166001547f6533c0d8a738079a5064424a83bd885c2dfb54138f56a58e1cb171c40fa480e0426040516109b19190611780565b60405180910390a4600160008154809291906109cc906122d3565b91905055505050565b7f000000000000000000000000000000000000000000000000000000000000000081565b610a01611506565b6000808381526020019081526020016000206040518060c00160405290816000820160009054906101000a900473ffffffffffffffffffffffffffffffffffffffff1673ffffffffffffffffffffffffffffffffffffffff1673ffffffffffffffffffffffffffffffffffffffff1681526020016001820160009054906101000a900473ffffffffffffffffffffffffffffffffffffffff1673ffffffffffffffffffffffffffffffffffffffff1673ffffffffffffffffffffffffffffffffffffffff168152602001600282018054610ada90611f1d565b80601f0160208091040260200160405190810160405280929190818152602001828054610b0690611f1d565b8015610b535780601f10610b2857610100808354040283529160200191610b53565b820191906000526020600020905b815481529060010190602001808311610b3657829003601f168201915b505050505081526020016003820160009054906101000a900460ff16151515158152602001600482015481526020016005820160009054906101000a900460ff1615151515815250509050919050565b7f000000000000000000000000000000000000000000000000000000000000000073ffffffffffffffffffffffffffffffffffffffff163373ffffffffffffffffffffffffffffffffffffffff1614610c31576040517f08c379a0000000000000000000000000000000000000000000000000000000008152600401610c2890612367565b60405180910390fd5b60008111610c74576040517f08c379a0000000000000000000000000000000000000000000000000000000008152600401610c6b906123d3565b60405180910390fd5b8060026000848152602001908152602001600020600201819055505050565b600080600083815260200190815260200160002090508060010160009054906101000a900473ffffffffffffffffffffffffffffffffffffffff1673ffffffffffffffffffffffffffffffffffffffff163373ffffffffffffffffffffffffffffffffffffffff1614610d3b576040517f08c379a0000000000000000000000000000000000000000000000000000000008152600401610d3290611df6565b60405180910390fd5b8060050160009054906101000a900460ff1615610d8d576040517f08c379a0000000000000000000000000000000000000000000000000000000008152600401610d849061243f565b60405180910390fd5b60018160050160006101000a81548160ff02191690831515021790555060405180602001604052806000815250816002019081610dca91906121d2565b503373ffffffffffffffffffffffffffffffffffffffff16827f728f066f4d1d424ab5f5a591aa40aa650fe607112cd483e67cf2816f8a9631d860405160405180910390a35050565b7f000000000000000000000000000000000000000000000000000000000000000073ffffffffffffffffffffffffffffffffffffffff163373ffffffffffffffffffffffffffffffffffffffff1614610ea1576040517f08c379a0000000000000000000000000000000000000000000000000000000008152600401610e9890612367565b60405180910390fd5b806002600084815260200190815260200160002060030160006101000a81548160ff0219169083151502179055505050565b60006002600084815260200190815260200160002090508060030160009054906101000a900460ff16610f3b576040517f08c379a0000000000000000000000000000000000000000000000000000000008152600401610f32906124ab565b60405180910390fd5b8060020154341015610f82576040517f08c379a0000000000000000000000000000000000000000000000000000000008152600401610f7990612517565b60405180910390fd5b600073ffffffffffffffffffffffffffffffffffffffff168273ffffffffffffffffffffffffffffffffffffffff1603610ff1576040517f08c379a0000000000000000000000000000000000000000000000000000000008152600401610fe890612583565b60405180910390fd5b60008160020154905060007f000000000000000000000000000000000000000000000000000000000000000073ffffffffffffffffffffffffffffffffffffffff1682604051611040906125d4565b60006040518083038185875af1925050503d806000811461107d576040519150601f19603f3d011682016040523d82523d6000602084013e611082565b606091505b50509050806110c6576040517f08c379a00000000000000000000000000000000000000000000000000000000081526004016110bd90612635565b60405180910390fd5b813411156111875760003373ffffffffffffffffffffffffffffffffffffffff1683346110f39190612655565b6040516110ff906125d4565b60006040518083038185875af1925050503d806000811461113c576040519150601f19603f3d011682016040523d82523d6000602084013e611141565b606091505b5050905080611185576040517f08c379a000000000000000000000000000000000000000000000000000000000815260040161117c906126d5565b60405180910390fd5b505b600460008573ffffffffffffffffffffffffffffffffffffffff1673ffffffffffffffffffffffffffffffffffffffff16815260200190815260200160002060405180604001604052808781526020013373ffffffffffffffffffffffffffffffffffffffff1681525090806001815401808255809150506001900390600052602060002090600202016000909190919091506000820151816000015560208201518160010160006101000a81548173ffffffffffffffffffffffffffffffffffffffff021916908373ffffffffffffffffffffffffffffffffffffffff16021790555050508373ffffffffffffffffffffffffffffffffffffffff163373ffffffffffffffffffffffffffffffffffffffff16867f1167e021c052af0780d3f03f62fe8141b28e148b94f2035f56395a8485de6c0f8660010160009054906101000a900460ff16866040516112de929190612704565b60405180910390a45050505050565b7f000000000000000000000000000000000000000000000000000000000000000073ffffffffffffffffffffffffffffffffffffffff163373ffffffffffffffffffffffffffffffffffffffff161461137b576040517f08c379a000000000000000000000000000000000000000000000000000000000815260040161137290612367565b60405180910390fd5b600081116113be576040517f08c379a00000000000000000000000000000000000000000000000000000000081526004016113b5906123d3565b60405180910390fd5b604051806080016040528060035481526020018360038111156113e4576113e361166f565b5b8152602001828152602001600115158152506002600060035481526020019081526020016000206000820151816000015560208201518160010160006101000a81548160ff021916908360038111156114405761143f61166f565b5b02179055506040820151816002015560608201518160030160006101000a81548160ff0219169083151502179055509050506003547f95dc3ce0fc1e471fcf0121324c0c4a95e5e3b4d41dba6b05e5b6d9f83771a46d83836040516114a6929190612704565b60405180910390a2600360008154809291906114c1906122d3565b91905055505050565b604051806080016040528060008152602001600060038111156114f0576114ef61166f565b5b8152602001600081526020016000151581525090565b6040518060c00160405280600073ffffffffffffffffffffffffffffffffffffffff168152602001600073ffffffffffffffffffffffffffffffffffffffff16815260200160608152602001600015158152602001600081526020016000151581525090565b600082825260208201905092915050565b7f446972656374207061796d656e7473206e6f7420616c6c6f7765640000000000600082015250565b60006115b3601b8361156c565b91506115be8261157d565b602082019050919050565b600060208201905081810360008301526115e2816115a6565b9050919050565b6000604051905090565b600080fd5b600080fd5b6000819050919050565b611610816115fd565b811461161b57600080fd5b50565b60008135905061162d81611607565b92915050565b600060208284031215611649576116486115f3565b5b60006116578482850161161e565b91505092915050565b611669816115fd565b82525050565b7f4e487b7100000000000000000000000000000000000000000000000000000000600052602160045260246000fd5b600481106116af576116ae61166f565b5b50565b60008190506116c08261169e565b919050565b60006116d0826116b2565b9050919050565b6116e0816116c5565b82525050565b60008115159050919050565b6116fb816116e6565b82525050565b6080820160008201516117176000850182611660565b50602082015161172a60208501826116d7565b50604082015161173d6040850182611660565b50606082015161175060608501826116f2565b50505050565b600060808201905061176b6000830184611701565b92915050565b61177a816115fd565b82525050565b60006020820190506117956000830184611771565b92915050565b600081519050919050565b600082825260208201905092915050565b6000819050602082019050919050565b600073ffffffffffffffffffffffffffffffffffffffff82169050919050565b60006117f2826117c7565b9050919050565b611802816117e7565b82525050565b60408201600082015161181e6000850182611660565b50602082015161183160208501826117f9565b50505050565b60006118438383611808565b60408301905092915050565b6000602082019050919050565b60006118678261179b565b61187181856117a6565b935061187c836117b7565b8060005b838110156118ad5781516118948882611837565b975061189f8361184f565b925050600181019050611880565b5085935050505092915050565b600060208201905081810360008301526118d4818461185c565b905092915050565b600081519050919050565b60005b838110156119055780820151818401526020810190506118ea565b60008484015250505050565b6000601f19601f8301169050919050565b600061192d826118dc565b611937818561156c565b93506119478185602086016118e7565b61195081611911565b840191505092915050565b600060208201905081810360008301526119758184611922565b905092915050565b611986816117e7565b811461199157600080fd5b50565b6000813590506119a38161197d565b92915050565b600080fd5b600080fd5b7f4e487b7100000000000000000000000000000000000000000000000000000000600052604160045260246000fd5b6119eb82611911565b810181811067ffffffffffffffff82111715611a0a57611a096119b3565b5b80604052505050565b6000611a1d6115e9565b9050611a2982826119e2565b919050565b600067ffffffffffffffff821115611a4957611a486119b3565b5b611a5282611911565b9050602081019050919050565b82818337600083830152505050565b6000611a81611a7c84611a2e565b611a13565b905082815260208101848484011115611a9d57611a9c6119ae565b5b611aa8848285611a5f565b509392505050565b600082601f830112611ac557611ac46119a9565b5b8135611ad5848260208601611a6e565b91505092915050565b60008060408385031215611af557611af46115f3565b5b6000611b0385828601611994565b925050602083013567ffffffffffffffff811115611b2457611b236115f8565b5b611b3085828601611ab0565b9150509250929050565b611b43816117e7565b82525050565b6000602082019050611b5e6000830184611b3a565b92915050565b600082825260208201905092915050565b6000611b80826118dc565b611b8a8185611b64565b9350611b9a8185602086016118e7565b611ba381611911565b840191505092915050565b600060c083016000830151611bc660008601826117f9565b506020830151611bd960208601826117f9565b5060408301518482036040860152611bf18282611b75565b9150506060830151611c0660608601826116f2565b506080830151611c196080860182611660565b5060a0830151611c2c60a08601826116f2565b508091505092915050565b60006020820190508181036000830152611c518184611bae565b905092915050565b60008060408385031215611c7057611c6f6115f3565b5b6000611c7e8582860161161e565b9250506020611c8f8582860161161e565b9150509250929050565b611ca2816116e6565b8114611cad57600080fd5b50565b600081359050611cbf81611c99565b92915050565b60008060408385031215611cdc57611cdb6115f3565b5b6000611cea8582860161161e565b9250506020611cfb85828601611cb0565b9150509250929050565b60008060408385031215611d1c57611d1b6115f3565b5b6000611d2a8582860161161e565b9250506020611d3b85828601611994565b9150509250929050565b60048110611d5257600080fd5b50565b600081359050611d6481611d45565b92915050565b60008060408385031215611d8157611d806115f3565b5b6000611d8f85828601611d55565b9250506020611da08582860161161e565b9150509250929050565b7f4e6f7420617574686f72697a6564000000000000000000000000000000000000600082015250565b6000611de0600e8361156c565b9150611deb82611daa565b602082019050919050565b60006020820190508181036000830152611e0f81611dd3565b9050919050565b7f4e6f74652064656c657465640000000000000000000000000000000000000000600082015250565b6000611e4c600c8361156c565b9150611e5782611e16565b602082019050919050565b60006020820190508181036000830152611e7b81611e3f565b9050919050565b7f4e6f746520616c72656164792072656164000000000000000000000000000000600082015250565b6000611eb860118361156c565b9150611ec382611e82565b602082019050919050565b60006020820190508181036000830152611ee781611eab565b9050919050565b7f4e487b7100000000000000000000000000000000000000000000000000000000600052602260045260246000fd5b60006002820490506001821680611f3557607f821691505b602082108103611f4857611f47611eee565b5b50919050565b7f496e76616c696420726563696576657200000000000000000000000000000000600082015250565b6000611f8460108361156c565b9150611f8f82611f4e565b602082019050919050565b60006020820190508181036000830152611fb381611f77565b9050919050565b7f456d70747920636f6e74656e7400000000000000000000000000000000000000600082015250565b6000611ff0600d8361156c565b9150611ffb82611fba565b602082019050919050565b6000602082019050818103600083015261201f81611fe3565b9050919050565b60008190508160005260206000209050919050565b60006020601f8301049050919050565b600082821b905092915050565b6000600883026120887fffffffffffffffffffffffffffffffffffffffffffffffffffffffffffffffff8261204b565b612092868361204b565b95508019841693508086168417925050509392505050565b6000819050919050565b60006120cf6120ca6120c5846115fd565b6120aa565b6115fd565b9050919050565b6000819050919050565b6120e9836120b4565b6120fd6120f5826120d6565b848454612058565b825550505050565b600090565b612112612105565b61211d8184846120e0565b505050565b5b818110156121415761213660008261210a565b600181019050612123565b5050565b601f8211156121865761215781612026565b6121608461203b565b8101602085101561216f578190505b61218361217b8561203b565b830182612122565b50505b505050565b600082821c905092915050565b60006121a96000198460080261218b565b1980831691505092915050565b60006121c28383612198565b9150826002028217905092915050565b6121db826118dc565b67ffffffffffffffff8111156121f4576121f36119b3565b5b6121fe8254611f1d565b612209828285612145565b600060209050601f83116001811461223c576000841561222a578287015190505b61223485826121b6565b86555061229c565b601f19841661224a86612026565b60005b828110156122725784890151825560018201915060208501945060208101905061224d565b8683101561228f578489015161228b601f891682612198565b8355505b6001600288020188555050505b505050505050565b7f4e487b7100000000000000000000000000000000000000000000000000000000600052601160045260246000fd5b60006122de826115fd565b91507fffffffffffffffffffffffffffffffffffffffffffffffffffffffffffffffff82036123105761230f6122a4565b5b600182019050919050565b7f4f6e6c79206f776e657200000000000000000000000000000000000000000000600082015250565b6000612351600a8361156c565b915061235c8261231b565b602082019050919050565b6000602082019050818103600083015261238081612344565b9050919050565b7f496e76616c696420707269636500000000000000000000000000000000000000600082015250565b60006123bd600d8361156c565b91506123c882612387565b602082019050919050565b600060208201905081810360008301526123ec816123b0565b9050919050565b7f4e6f746520616c72656164792064656c65746564000000000000000000000000600082015250565b600061242960148361156c565b9150612434826123f3565b602082019050919050565b600060208201905081810360008301526124588161241c565b9050919050565b7f49636f6e206e6f7420617661696c61626c650000000000000000000000000000600082015250565b600061249560128361156c565b91506124a08261245f565b602082019050919050565b600060208201905081810360008301526124c481612488565b9050919050565b7f496e73756666696369656e74207061796d656e74000000000000000000000000600082015250565b600061250160148361156c565b915061250c826124cb565b602082019050919050565b60006020820190508181036000830152612530816124f4565b9050919050565b7f496e76616c696420726563697069656e74000000000000000000000000000000600082015250565b600061256d60118361156c565b915061257882612537565b602082019050919050565b6000602082019050818103600083015261259c81612560565b9050919050565b600081905092915050565b50565b60006125be6000836125a3565b91506125c9826125ae565b600082019050919050565b60006125df826125b1565b9150819050919050565b7f5061796d656e74206661696c6564000000000000000000000000000000000000600082015250565b600061261f600e8361156c565b915061262a826125e9565b602082019050919050565b6000602082019050818103600083015261264e81612612565b9050919050565b6000612660826115fd565b915061266b836115fd565b9250828203905081811115612683576126826122a4565b5b92915050565b7f526566756e64206661696c656400000000000000000000000000000000000000600082015250565b60006126bf600d8361156c565b91506126ca82612689565b602082019050919050565b600060208201905081810360008301526126ee816126b2565b9050919050565b6126fe816116c5565b82525050565b600060408201905061271960008301856126f5565b6127266020830184611771565b939250505056fea2646970667358221220aa1298943730339d150afcff58b3005f0a874ce80c4ea9bf3e685b3d3e1fdace64736f6c63430008130033",
  "linkReferences": {},
  "deployedLinkReferences": {}
}