{
  "_format": "hh-sol-artifact-1",
  "contractName": "SecureNotes",
  "sourceName": "contracts/SecureNotes.sol",
  "abi": [
    {
      "inputs": [],
      "stateMutability": "nonpayable",
      "type": "constructor"
    },
    {
      "anonymous": false,
      "inputs": [
        {
          "indexed": true,
          "internalType": "uint256",
          "name": "id",
          "type": "uint256"
        },
        {
          "indexed": false,
          "internalType": "enum SecureNotes.IconType",
          "name": "iconType",
          "type": "uint8"
        },
        {
          "indexed": false,
          "internalType": "uint256",
          "name": "price",
          "type": "uint256"
        }
      ],
      "name": "IconAdded",
      "type": "event"
    },
    {
      "anonymous": false,
      "inputs": [
        {
          "indexed": true,
          "internalType": "uint256",
          "name": "id",
          "type": "uint256"
        },
        {
          "indexed": false,
          "internalType": "enum SecureNotes.IconType",
          "name": "iconType",
          "type": "uint8"
        },
        {
          "indexed": true,
          "internalType": "address",
          "name": "buyer",
          "type": "address"
        },
        {
          "indexed": true,
          "internalType": "address",
          "name": "recipient",
          "type": "address"
        },
        {
          "indexed": false,
          "internalType": "uint256",
          "name": "price",
          "type": "uint256"
        }
      ],
      "name": "IconPurchased",
      "type": "event"
    },
    {
      "anonymous": false,
      "inputs": [
        {
          "indexed": true,
          "internalType": "uint256",
          "name": "id",
          "type": "uint256"
        },
        {
          "indexed": true,
          "internalType": "address",
          "name": "reader",
          "type": "address"
        }
      ],
      "name": "NoteRead",
      "type": "event"
    },
    {
      "anonymous": false,
      "inputs": [
        {
          "indexed": true,
          "internalType": "uint256",
          "name": "id",
          "type": "uint256"
        },
        {
          "indexed": true,
          "internalType": "address",
          "name": "sender",
          "type": "address"
        },
        {
          "indexed": true,
          "internalType": "address",
          "name": "recipient",
          "type": "address"
        }
      ],
      "name": "NoteSent",
      "type": "event"
    },
    {
      "inputs": [
        {
          "internalType": "enum SecureNotes.IconType",
          "name": "_type",
          "type": "uint8"
        },
        {
          "internalType": "uint256",
          "name": "_price",
          "type": "uint256"
        }
      ],
      "name": "addIcon",
      "outputs": [],
      "stateMutability": "nonpayable",
      "type": "function"
    },
    {
      "inputs": [
        {
          "internalType": "uint256",
          "name": "_id",
          "type": "uint256"
        },
        {
          "internalType": "address",
          "name": "_recipient",
          "type": "address"
        }
      ],
      "name": "buyAndSendIcon",
      "outputs": [],
      "stateMutability": "payable",
      "type": "function"
    },
    {
      "inputs": [
        {
          "internalType": "uint256",
          "name": "_id",
          "type": "uint256"
        }
      ],
      "name": "getIcon",
      "outputs": [
        {
          "components": [
            {
              "internalType": "uint256",
              "name": "id",
              "type": "uint256"
            },
            {
              "internalType": "enum SecureNotes.IconType",
              "name": "iconType",
              "type": "uint8"
            },
            {
              "internalType": "uint256",
              "name": "price",
              "type": "uint256"
            },
            {
              "internalType": "bool",
              "name": "available",
              "type": "bool"
            }
          ],
          "internalType": "struct SecureNotes.Icon",
          "name": "",
          "type": "tuple"
        }
      ],
      "stateMutability": "view",
      "type": "function"
    },
    {
      "inputs": [
        {
          "internalType": "uint256",
          "name": "_id",
          "type": "uint256"
        }
      ],
      "name": "getNote",
      "outputs": [
        {
          "components": [
            {
              "internalType": "address",
              "name": "sender",
              "type": "address"
            },
            {
              "internalType": "address",
              "name": "recipient",
              "type": "address"
            },
            {
              "internalType": "string",
              "name": "encryptedContent",
              "type": "string"
            },
            {
              "internalType": "bool",
              "name": "isRead",
              "type": "bool"
            }
          ],
          "internalType": "struct SecureNotes.Note",
          "name": "",
          "type": "tuple"
        }
      ],
      "stateMutability": "view",
      "type": "function"
    },
    {
      "inputs": [],
      "name": "iconCount",
      "outputs": [
        {
          "internalType": "uint256",
          "name": "",
          "type": "uint256"
        }
      ],
      "stateMutability": "view",
      "type": "function"
    },
    {
      "inputs": [],
      "name": "noteCount",
      "outputs": [
        {
          "internalType": "uint256",
          "name": "",
          "type": "uint256"
        }
      ],
      "stateMutability": "view",
      "type": "function"
    },
    {
      "inputs": [],
      "name": "owner",
      "outputs": [
        {
          "internalType": "address",
          "name": "",
          "type": "address"
        }
      ],
      "stateMutability": "view",
      "type": "function"
    },
    {
      "inputs": [
        {
          "internalType": "uint256",
          "name": "_id",
          "type": "uint256"
        }
      ],
      "name": "readEncryptedNote",
      "outputs": [
        {
          "internalType": "string",
          "name": "",
          "type": "string"
        }
      ],
      "stateMutability": "nonpayable",
      "type": "function"
    },
    {
      "inputs": [
        {
          "internalType": "address",
          "name": "_recipient",
          "type": "address"
        },
        {
          "internalType": "string",
          "name": "_encryptedContent",
          "type": "string"
        }
      ],
      "name": "sendEncryptedNote",
      "outputs": [],
      "stateMutability": "nonpayable",
      "type": "function"
    },
    {
      "inputs": [
        {
          "internalType": "uint256",
          "name": "_id",
          "type": "uint256"
        },
        {
          "internalType": "bool",
          "name": "_available",
          "type": "bool"
        }
      ],
      "name": "setIconAvailability",
      "outputs": [],
      "stateMutability": "nonpayable",
      "type": "function"
    },
    {
      "inputs": [
        {
          "internalType": "uint256",
          "name": "_id",
          "type": "uint256"
        },
        {
          "internalType": "uint256",
          "name": "_newPrice",
          "type": "uint256"
        }
      ],
      "name": "updateIconPrice",
      "outputs": [],
      "stateMutability": "nonpayable",
      "type": "function"
    },
    {
      "stateMutability": "payable",
      "type": "receive"
    }
  ],
  "bytecode": "0x60a060405234801561001057600080fd5b503373ffffffffffffffffffffffffffffffffffffffff1660808173ffffffffffffffffffffffffffffffffffffffff16815250506080516120be61007c600039600081816107cb0152818161097401528181610a6401528181610c4d0152610e5801526120be6000f3fe6080604052600436106100a05760003560e01c80638da5cb5b116100645780638da5cb5b146101de578063a965a94114610209578063b60ace0f14610246578063c760f4d11461026f578063ca13b6dd14610298578063d506e7a1146102b4576100e0565b80632a1a5446146100e55780632d2b4a0114610122578063317a4c761461014d57806343f603d71461017857806355173d7f146101b5576100e0565b366100e0576040517f08c379a00000000000000000000000000000000000000000000000000000000081526004016100d790611122565b60405180910390fd5b600080fd5b3480156100f157600080fd5b5061010c6004803603810190610107919061118c565b6102dd565b60405161011991906112af565b60405180910390f35b34801561012e57600080fd5b50610137610374565b60405161014491906112d9565b60405180910390f35b34801561015957600080fd5b5061016261037a565b60405161016f91906112d9565b60405180910390f35b34801561018457600080fd5b5061019f600480360381019061019a919061118c565b610380565b6040516101ac9190611373565b60405180910390f35b3480156101c157600080fd5b506101dc60048036038101906101d79190611528565b610572565b005b3480156101ea57600080fd5b506101f36107c9565b6040516102009190611593565b60405180910390f35b34801561021557600080fd5b50610230600480360381019061022b919061118c565b6107ed565b60405161023d919061166a565b60405180910390f35b34801561025257600080fd5b5061026d6004803603810190610268919061168c565b610972565b005b34801561027b57600080fd5b50610296600480360381019061029191906116f8565b610a62565b005b6102b260048036038101906102ad9190611738565b610b22565b005b3480156102c057600080fd5b506102db60048036038101906102d6919061179d565b610e56565b005b6102e5611033565b60026000838152602001908152602001600020604051806080016040529081600082015481526020016001820160009054906101000a900460ff166004811115610332576103316111c8565b5b6004811115610344576103436111c8565b5b8152602001600282015481526020016003820160009054906101000a900460ff1615151515815250509050919050565b60035481565b60015481565b6060600080600084815260200190815260200160002090508060010160009054906101000a900473ffffffffffffffffffffffffffffffffffffffff1673ffffffffffffffffffffffffffffffffffffffff163373ffffffffffffffffffffffffffffffffffffffff161461042a576040517f08c379a000000000000000000000000000000000000000000000000000000000815260040161042190611829565b60405180910390fd5b8060030160009054906101000a900460ff161561047c576040517f08c379a000000000000000000000000000000000000000000000000000000000815260040161047390611895565b60405180910390fd5b60018160030160006101000a81548160ff0219169083151502179055503373ffffffffffffffffffffffffffffffffffffffff16837fff07445769a7abc5be8997616ed438ea9cce629d71de75a2a86abf6d4188193b60405160405180910390a38060020180546104ec906118e4565b80601f0160208091040260200160405190810160405280929190818152602001828054610518906118e4565b80156105655780601f1061053a57610100808354040283529160200191610565565b820191906000526020600020905b81548152906001019060200180831161054857829003601f168201915b5050505050915050919050565b600073ffffffffffffffffffffffffffffffffffffffff168273ffffffffffffffffffffffffffffffffffffffff16036105e1576040517f08c379a00000000000000000000000000000000000000000000000000000000081526004016105d890611961565b60405180910390fd5b6000815111610625576040517f08c379a000000000000000000000000000000000000000000000000000000000815260040161061c906119cd565b60405180910390fd5b60405180608001604052803373ffffffffffffffffffffffffffffffffffffffff1681526020018373ffffffffffffffffffffffffffffffffffffffff16815260200182815260200160001515815250600080600154815260200190815260200160002060008201518160000160006101000a81548173ffffffffffffffffffffffffffffffffffffffff021916908373ffffffffffffffffffffffffffffffffffffffff16021790555060208201518160010160006101000a81548173ffffffffffffffffffffffffffffffffffffffff021916908373ffffffffffffffffffffffffffffffffffffffff160217905550604082015181600201908161072c9190611b99565b5060608201518160030160006101000a81548160ff0219169083151502179055509050508173ffffffffffffffffffffffffffffffffffffffff163373ffffffffffffffffffffffffffffffffffffffff166001547fde42e7ccee287eee8555f1fc65f323623c03b0fe2e63940419dbb5d4ee28f10660405160405180910390a4600160008154809291906107c090611c9a565b91905055505050565b7f000000000000000000000000000000000000000000000000000000000000000081565b6107f561106f565b6000808381526020019081526020016000206040518060800160405290816000820160009054906101000a900473ffffffffffffffffffffffffffffffffffffffff1673ffffffffffffffffffffffffffffffffffffffff1673ffffffffffffffffffffffffffffffffffffffff1681526020016001820160009054906101000a900473ffffffffffffffffffffffffffffffffffffffff1673ffffffffffffffffffffffffffffffffffffffff1673ffffffffffffffffffffffffffffffffffffffff1681526020016002820180546108ce906118e4565b80601f01602080910402602001604051908101604052809291908181526020018280546108fa906118e4565b80156109475780601f1061091c57610100808354040283529160200191610947565b820191906000526020600020905b81548152906001019060200180831161092a57829003601f168201915b505050505081526020016003820160009054906101000a900460ff1615151515815250509050919050565b7f000000000000000000000000000000000000000000000000000000000000000073ffffffffffffffffffffffffffffffffffffffff163373ffffffffffffffffffffffffffffffffffffffff1614610a00576040517f08c379a00000000000000000000000000000000000000000000000000000000081526004016109f790611d2e565b60405180910390fd5b60008111610a43576040517f08c379a0000000000000000000000000000000000000000000000000000000008152600401610a3a90611d9a565b60405180910390fd5b8060026000848152602001908152602001600020600201819055505050565b7f000000000000000000000000000000000000000000000000000000000000000073ffffffffffffffffffffffffffffffffffffffff163373ffffffffffffffffffffffffffffffffffffffff1614610af0576040517f08c379a0000000000000000000000000000000000000000000000000000000008152600401610ae790611d2e565b60405180910390fd5b806002600084815260200190815260200160002060030160006101000a81548160ff0219169083151502179055505050565b60006002600084815260200190815260200160002090508060030160009054906101000a900460ff16610b8a576040517f08c379a0000000000000000000000000000000000000000000000000000000008152600401610b8190611e06565b60405180910390fd5b8060020154341015610bd1576040517f08c379a0000000000000000000000000000000000000000000000000000000008152600401610bc890611e72565b60405180910390fd5b600073ffffffffffffffffffffffffffffffffffffffff168273ffffffffffffffffffffffffffffffffffffffff1603610c40576040517f08c379a0000000000000000000000000000000000000000000000000000000008152600401610c3790611ede565b60405180910390fd5b60008160020154905060007f000000000000000000000000000000000000000000000000000000000000000073ffffffffffffffffffffffffffffffffffffffff1682604051610c8f90611f2f565b60006040518083038185875af1925050503d8060008114610ccc576040519150601f19603f3d011682016040523d82523d6000602084013e610cd1565b606091505b5050905080610d15576040517f08c379a0000000000000000000000000000000000000000000000000000000008152600401610d0c90611f90565b60405180910390fd5b81341115610dd65760003373ffffffffffffffffffffffffffffffffffffffff168334610d429190611fb0565b604051610d4e90611f2f565b60006040518083038185875af1925050503d8060008114610d8b576040519150601f19603f3d011682016040523d82523d6000602084013e610d90565b606091505b5050905080610dd4576040517f08c379a0000000000000000000000000000000000000000000000000000000008152600401610dcb90612030565b60405180910390fd5b505b8373ffffffffffffffffffffffffffffffffffffffff163373ffffffffffffffffffffffffffffffffffffffff16867f1167e021c052af0780d3f03f62fe8141b28e148b94f2035f56395a8485de6c0f8660010160009054906101000a900460ff1686604051610e4792919061205f565b60405180910390a45050505050565b7f000000000000000000000000000000000000000000000000000000000000000073ffffffffffffffffffffffffffffffffffffffff163373ffffffffffffffffffffffffffffffffffffffff1614610ee4576040517f08c379a0000000000000000000000000000000000000000000000000000000008152600401610edb90611d2e565b60405180910390fd5b60008111610f27576040517f08c379a0000000000000000000000000000000000000000000000000000000008152600401610f1e90611d9a565b60405180910390fd5b60405180608001604052806003548152602001836004811115610f4d57610f4c6111c8565b5b8152602001828152602001600115158152506002600060035481526020019081526020016000206000820151816000015560208201518160010160006101000a81548160ff02191690836004811115610fa957610fa86111c8565b5b02179055506040820151816002015560608201518160030160006101000a81548160ff0219169083151502179055509050506003547f95dc3ce0fc1e471fcf0121324c0c4a95e5e3b4d41dba6b05e5b6d9f83771a46d838360405161100f92919061205f565b60405180910390a26003600081548092919061102a90611c9a565b91905055505050565b60405180608001604052806000815260200160006004811115611059576110586111c8565b5b8152602001600081526020016000151581525090565b6040518060800160405280600073ffffffffffffffffffffffffffffffffffffffff168152602001600073ffffffffffffffffffffffffffffffffffffffff168152602001606081526020016000151581525090565b600082825260208201905092915050565b7f446972656374207061796d656e7473206e6f7420616c6c6f7765640000000000600082015250565b600061110c601b836110c5565b9150611117826110d6565b602082019050919050565b6000602082019050818103600083015261113b816110ff565b9050919050565b6000604051905090565b600080fd5b600080fd5b6000819050919050565b61116981611156565b811461117457600080fd5b50565b60008135905061118681611160565b92915050565b6000602082840312156111a2576111a161114c565b5b60006111b084828501611177565b91505092915050565b6111c281611156565b82525050565b7f4e487b7100000000000000000000000000000000000000000000000000000000600052602160045260246000fd5b60058110611208576112076111c8565b5b50565b6000819050611219826111f7565b919050565b60006112298261120b565b9050919050565b6112398161121e565b82525050565b60008115159050919050565b6112548161123f565b82525050565b60808201600082015161127060008501826111b9565b5060208201516112836020850182611230565b50604082015161129660408501826111b9565b5060608201516112a9606085018261124b565b50505050565b60006080820190506112c4600083018461125a565b92915050565b6112d381611156565b82525050565b60006020820190506112ee60008301846112ca565b92915050565b600081519050919050565b60005b8381101561131d578082015181840152602081019050611302565b60008484015250505050565b6000601f19601f8301169050919050565b6000611345826112f4565b61134f81856110c5565b935061135f8185602086016112ff565b61136881611329565b840191505092915050565b6000602082019050818103600083015261138d818461133a565b905092915050565b600073ffffffffffffffffffffffffffffffffffffffff82169050919050565b60006113c082611395565b9050919050565b6113d0816113b5565b81146113db57600080fd5b50565b6000813590506113ed816113c7565b92915050565b600080fd5b600080fd5b7f4e487b7100000000000000000000000000000000000000000000000000000000600052604160045260246000fd5b61143582611329565b810181811067ffffffffffffffff82111715611454576114536113fd565b5b80604052505050565b6000611467611142565b9050611473828261142c565b919050565b600067ffffffffffffffff821115611493576114926113fd565b5b61149c82611329565b9050602081019050919050565b82818337600083830152505050565b60006114cb6114c684611478565b61145d565b9050828152602081018484840111156114e7576114e66113f8565b5b6114f28482856114a9565b509392505050565b600082601f83011261150f5761150e6113f3565b5b813561151f8482602086016114b8565b91505092915050565b6000806040838503121561153f5761153e61114c565b5b600061154d858286016113de565b925050602083013567ffffffffffffffff81111561156e5761156d611151565b5b61157a858286016114fa565b9150509250929050565b61158d816113b5565b82525050565b60006020820190506115a86000830184611584565b92915050565b6115b7816113b5565b82525050565b600082825260208201905092915050565b60006115d9826112f4565b6115e381856115bd565b93506115f38185602086016112ff565b6115fc81611329565b840191505092915050565b600060808301600083015161161f60008601826115ae565b50602083015161163260208601826115ae565b506040830151848203604086015261164a82826115ce565b915050606083015161165f606086018261124b565b508091505092915050565b600060208201905081810360008301526116848184611607565b905092915050565b600080604083850312156116a3576116a261114c565b5b60006116b185828601611177565b92505060206116c285828601611177565b9150509250929050565b6116d58161123f565b81146116e057600080fd5b50565b6000813590506116f2816116cc565b92915050565b6000806040838503121561170f5761170e61114c565b5b600061171d85828601611177565b925050602061172e858286016116e3565b9150509250929050565b6000806040838503121561174f5761174e61114c565b5b600061175d85828601611177565b925050602061176e858286016113de565b9150509250929050565b6005811061178557600080fd5b50565b60008135905061179781611778565b92915050565b600080604083850312156117b4576117b361114c565b5b60006117c285828601611788565b92505060206117d385828601611177565b9150509250929050565b7f4e6f7420617574686f72697a6564000000000000000000000000000000000000600082015250565b6000611813600e836110c5565b915061181e826117dd565b602082019050919050565b6000602082019050818103600083015261184281611806565b9050919050565b7f4e6f746520616c72656164792072656164000000000000000000000000000000600082015250565b600061187f6011836110c5565b915061188a82611849565b602082019050919050565b600060208201905081810360008301526118ae81611872565b9050919050565b7f4e487b7100000000000000000000000000000000000000000000000000000000600052602260045260246000fd5b600060028204905060018216806118fc57607f821691505b60208210810361190f5761190e6118b5565b5b50919050565b7f496e76616c696420726563696576657200000000000000000000000000000000600082015250565b600061194b6010836110c5565b915061195682611915565b602082019050919050565b6000602082019050818103600083015261197a8161193e565b9050919050565b7f456d70747920636f6e74656e7400000000000000000000000000000000000000600082015250565b60006119b7600d836110c5565b91506119c282611981565b602082019050919050565b600060208201905081810360008301526119e6816119aa565b9050919050565b60008190508160005260206000209050919050565b60006020601f8301049050919050565b600082821b905092915050565b600060088302611a4f7fffffffffffffffffffffffffffffffffffffffffffffffffffffffffffffffff82611a12565b611a598683611a12565b95508019841693508086168417925050509392505050565b6000819050919050565b6000611a96611a91611a8c84611156565b611a71565b611156565b9050919050565b6000819050919050565b611ab083611a7b565b611ac4611abc82611a9d565b848454611a1f565b825550505050565b600090565b611ad9611acc565b611ae4818484611aa7565b505050565b5b81811015611b0857611afd600082611ad1565b600181019050611aea565b5050565b601f821115611b4d57611b1e816119ed565b611b2784611a02565b81016020851015611b36578190505b611b4a611b4285611a02565b830182611ae9565b50505b505050565b600082821c905092915050565b6000611b7060001984600802611b52565b1980831691505092915050565b6000611b898383611b5f565b9150826002028217905092915050565b611ba2826112f4565b67ffffffffffffffff811115611bbb57611bba6113fd565b5b611bc582546118e4565b611bd0828285611b0c565b600060209050601f831160018114611c035760008415611bf1578287015190505b611bfb8582611b7d565b865550611c63565b601f198416611c11866119ed565b60005b82811015611c3957848901518255600182019150602085019450602081019050611c14565b86831015611c565784890151611c52601f891682611b5f565b8355505b6001600288020188555050505b505050505050565b7f4e487b7100000000000000000000000000000000000000000000000000000000600052601160045260246000fd5b6000611ca582611156565b91507fffffffffffffffffffffffffffffffffffffffffffffffffffffffffffffffff8203611cd757611cd6611c6b565b5b600182019050919050565b7f4f6e6c79206f776e657200000000000000000000000000000000000000000000600082015250565b6000611d18600a836110c5565b9150611d2382611ce2565b602082019050919050565b60006020820190508181036000830152611d4781611d0b565b9050919050565b7f496e76616c696420707269636500000000000000000000000000000000000000600082015250565b6000611d84600d836110c5565b9150611d8f82611d4e565b602082019050919050565b60006020820190508181036000830152611db381611d77565b9050919050565b7f49636f6e206e6f7420617661696c61626c650000000000000000000000000000600082015250565b6000611df06012836110c5565b9150611dfb82611dba565b602082019050919050565b60006020820190508181036000830152611e1f81611de3565b9050919050565b7f496e73756666696369656e74207061796d656e74000000000000000000000000600082015250565b6000611e5c6014836110c5565b9150611e6782611e26565b602082019050919050565b60006020820190508181036000830152611e8b81611e4f565b9050919050565b7f496e76616c696420726563697069656e74000000000000000000000000000000600082015250565b6000611ec86011836110c5565b9150611ed382611e92565b602082019050919050565b60006020820190508181036000830152611ef781611ebb565b9050919050565b600081905092915050565b50565b6000611f19600083611efe565b9150611f2482611f09565b600082019050919050565b6000611f3a82611f0c565b9150819050919050565b7f5061796d656e74206661696c6564000000000000000000000000000000000000600082015250565b6000611f7a600e836110c5565b9150611f8582611f44565b602082019050919050565b60006020820190508181036000830152611fa981611f6d565b9050919050565b6000611fbb82611156565b9150611fc683611156565b9250828203905081811115611fde57611fdd611c6b565b5b92915050565b7f526566756e64206661696c656400000000000000000000000000000000000000600082015250565b600061201a600d836110c5565b915061202582611fe4565b602082019050919050565b600060208201905081810360008301526120498161200d565b9050919050565b6120598161121e565b82525050565b60006040820190506120746000830185612050565b61208160208301846112ca565b939250505056fea2646970667358221220d9b7477ee0ea1d4e5f166a781aa2ac4d47c0041caf0f8e053e1b1421babe809164736f6c63430008130033",
  "linkReferences": {},
  "deployedLinkReferences": {}
}