{
  "_format": "hh-sol-artifact-1",
  "contractName": "SecureNotes",
  "sourceName": "contracts/SecureNotes.sol",
  "abi": [
    {
      "inputs": [],
      "stateMutability": "nonpayable",
      "type": "constructor"
    },
    {
      "anonymous": false,
      "inputs": [
        {
          "indexed": true,
          "internalType": "uint256",
          "name": "id",
          "type": "uint256"
        },
        {
          "indexed": false,
          "internalType": "enum SecureNotes.IconType",
          "name": "iconType",
          "type": "uint8"
        },
        {
          "indexed": false,
          "internalType": "uint256",
          "name": "price",
          "type": "uint256"
        }
      ],
      "name": "IconAdded",
      "type": "event"
    },
    {
      "anonymous": false,
      "inputs": [
        {
          "indexed": true,
          "internalType": "uint256",
          "name": "id",
          "type": "uint256"
        },
        {
          "indexed": false,
          "internalType": "enum SecureNotes.IconType",
          "name": "iconType",
          "type": "uint8"
        },
        {
          "indexed": true,
          "internalType": "address",
          "name": "buyer",
          "type": "address"
        },
        {
          "indexed": true,
          "internalType": "address",
          "name": "recipient",
          "type": "address"
        },
        {
          "indexed": false,
          "internalType": "uint256",
          "name": "price",
          "type": "uint256"
        }
      ],
      "name": "IconPurchased",
      "type": "event"
    },
    {
      "anonymous": false,
      "inputs": [
        {
          "indexed": true,
          "internalType": "uint256",
          "name": "id",
          "type": "uint256"
        },
        {
          "indexed": true,
          "internalType": "address",
          "name": "deleter",
          "type": "address"
        }
      ],
      "name": "NoteDeleted",
      "type": "event"
    },
    {
      "anonymous": false,
      "inputs": [
        {
          "indexed": true,
          "internalType": "uint256",
          "name": "id",
          "type": "uint256"
        },
        {
          "indexed": true,
          "internalType": "address",
          "name": "reader",
          "type": "address"
        }
      ],
      "name": "NoteRead",
      "type": "event"
    },
    {
      "anonymous": false,
      "inputs": [
        {
          "indexed": true,
          "internalType": "uint256",
          "name": "id",
          "type": "uint256"
        },
        {
          "indexed": true,
          "internalType": "address",
          "name": "sender",
          "type": "address"
        },
        {
          "indexed": true,
          "internalType": "address",
          "name": "recipient",
          "type": "address"
        },
        {
          "indexed": false,
          "internalType": "uint256",
          "name": "timestamp",
          "type": "uint256"
        }
      ],
      "name": "NoteSent",
      "type": "event"
    },
    {
      "anonymous": false,
      "inputs": [
        {
          "indexed": true,
          "internalType": "address",
          "name": "user",
          "type": "address"
        },
        {
          "indexed": false,
          "internalType": "string",
          "name": "publicKey",
          "type": "string"
        }
      ],
      "name": "PublicKeyRegistered",
      "type": "event"
    },
    {
      "inputs": [
        {
          "internalType": "enum SecureNotes.IconType",
          "name": "_type",
          "type": "uint8"
        },
        {
          "internalType": "uint256",
          "name": "_price",
          "type": "uint256"
        }
      ],
      "name": "addIcon",
      "outputs": [],
      "stateMutability": "nonpayable",
      "type": "function"
    },
    {
      "inputs": [
        {
          "internalType": "uint256",
          "name": "_id",
          "type": "uint256"
        },
        {
          "internalType": "address",
          "name": "_recipient",
          "type": "address"
        }
      ],
      "name": "buyAndSendIcon",
      "outputs": [],
      "stateMutability": "payable",
      "type": "function"
    },
    {
      "inputs": [
        {
          "internalType": "uint256",
          "name": "_id",
          "type": "uint256"
        }
      ],
      "name": "deleteNote",
      "outputs": [],
      "stateMutability": "nonpayable",
      "type": "function"
    },
    {
      "inputs": [
        {
          "internalType": "address",
          "name": "",
          "type": "address"
        }
      ],
      "name": "encryptionKeys",
      "outputs": [
        {
          "internalType": "string",
          "name": "",
          "type": "string"
        }
      ],
      "stateMutability": "view",
      "type": "function"
    },
    {
      "inputs": [
        {
          "internalType": "uint256",
          "name": "_id",
          "type": "uint256"
        }
      ],
      "name": "getIcon",
      "outputs": [
        {
          "components": [
            {
              "internalType": "uint256",
              "name": "id",
              "type": "uint256"
            },
            {
              "internalType": "enum SecureNotes.IconType",
              "name": "iconType",
              "type": "uint8"
            },
            {
              "internalType": "uint256",
              "name": "price",
              "type": "uint256"
            },
            {
              "internalType": "bool",
              "name": "available",
              "type": "bool"
            }
          ],
          "internalType": "struct SecureNotes.Icon",
          "name": "",
          "type": "tuple"
        }
      ],
      "stateMutability": "view",
      "type": "function"
    },
    {
      "inputs": [],
      "name": "getMyReceivedIcons",
      "outputs": [
        {
          "components": [
            {
              "internalType": "uint256",
              "name": "iconId",
              "type": "uint256"
            },
            {
              "internalType": "address",
              "name": "sender",
              "type": "address"
            }
          ],
          "internalType": "struct SecureNotes.ReceivedIcon[]",
          "name": "",
          "type": "tuple[]"
        }
      ],
      "stateMutability": "view",
      "type": "function"
    },
    {
      "inputs": [
        {
          "internalType": "uint256",
          "name": "_id",
          "type": "uint256"
        }
      ],
      "name": "getNote",
      "outputs": [
        {
          "components": [
            {
              "internalType": "address",
              "name": "sender",
              "type": "address"
            },
            {
              "internalType": "address",
              "name": "recipient",
              "type": "address"
            },
            {
              "internalType": "string",
              "name": "encryptedContent",
              "type": "string"
            },
            {
              "internalType": "bool",
              "name": "isRead",
              "type": "bool"
            },
            {
              "internalType": "uint256",
              "name": "timestamp",
              "type": "uint256"
            },
            {
              "internalType": "bool",
              "name": "isDeleted",
              "type": "bool"
            }
          ],
          "internalType": "struct SecureNotes.Note",
          "name": "",
          "type": "tuple"
        }
      ],
      "stateMutability": "view",
      "type": "function"
    },
    {
      "inputs": [],
      "name": "iconCount",
      "outputs": [
        {
          "internalType": "uint256",
          "name": "",
          "type": "uint256"
        }
      ],
      "stateMutability": "view",
      "type": "function"
    },
    {
      "inputs": [],
      "name": "noteCount",
      "outputs": [
        {
          "internalType": "uint256",
          "name": "",
          "type": "uint256"
        }
      ],
      "stateMutability": "view",
      "type": "function"
    },
    {
      "inputs": [],
      "name": "owner",
      "outputs": [
        {
          "internalType": "address",
          "name": "",
          "type": "address"
        }
      ],
      "stateMutability": "view",
      "type": "function"
    },
    {
      "inputs": [
        {
          "internalType": "uint256",
          "name": "_id",
          "type": "uint256"
        }
      ],
      "name": "readEncryptedNote",
      "outputs": [
        {
          "internalType": "string",
          "name": "",
          "type": "string"
        }
      ],
      "stateMutability": "nonpayable",
      "type": "function"
    },
    {
      "inputs": [
        {
          "internalType": "string",
          "name": "_publicKey",
          "type": "string"
        }
      ],
      "name": "registerPublicKey",
      "outputs": [],
      "stateMutability": "nonpayable",
      "type": "function"
    },
    {
      "inputs": [
        {
          "internalType": "address",
          "name": "_recipient",
          "type": "address"
        },
        {
          "internalType": "string",
          "name": "_encryptedContent",
          "type": "string"
        }
      ],
      "name": "sendEncryptedNote",
      "outputs": [],
      "stateMutability": "nonpayable",
      "type": "function"
    },
    {
      "inputs": [
        {
          "internalType": "uint256",
          "name": "_id",
          "type": "uint256"
        },
        {
          "internalType": "bool",
          "name": "_available",
          "type": "bool"
        }
      ],
      "name": "setIconAvailability",
      "outputs": [],
      "stateMutability": "nonpayable",
      "type": "function"
    },
    {
      "inputs": [
        {
          "internalType": "uint256",
          "name": "_id",
          "type": "uint256"
        },
        {
          "internalType": "uint256",
          "name": "_newPrice",
          "type": "uint256"
        }
      ],
      "name": "updateIconPrice",
      "outputs": [],
      "stateMutability": "nonpayable",
      "type": "function"
    },
    {
      "stateMutability": "payable",
      "type": "receive"
    }
  ],
  "bytecode": "0x60a060405234801561001057600080fd5b503373ffffffffffffffffffffffffffffffffffffffff1660808173ffffffffffffffffffffffffffffffffffffffff1681525050608051612a5361007c60003960008181610b0301528181610cd101528181610f410152818161112a015261141b0152612a536000f3fe6080604052600436106100ec5760003560e01c80638da5cb5b1161008a578063c760f4d111610059578063c760f4d11461034c578063ca13b6dd14610375578063d506e7a114610391578063f590b65f146103ba5761012c565b80638da5cb5b14610292578063a965a941146102bd578063b60ace0f146102fa578063c47177f4146103235761012c565b8063317a4c76116100c6578063317a4c76146101d65780633781b90b1461020157806343f603d71461022c57806355173d7f146102695761012c565b80631f4d024d146101315780632a1a54461461016e5780632d2b4a01146101ab5761012c565b3661012c576040517f08c379a0000000000000000000000000000000000000000000000000000000008152600401610123906117d7565b60405180910390fd5b600080fd5b34801561013d57600080fd5b5061015860048036038101906101539190611869565b6103e3565b6040516101659190611915565b60405180910390f35b34801561017a57600080fd5b506101956004803603810190610190919061196d565b610483565b6040516101a29190611a90565b60405180910390f35b3480156101b757600080fd5b506101c061051a565b6040516101cd9190611aba565b60405180910390f35b3480156101e257600080fd5b506101eb610520565b6040516101f89190611aba565b60405180910390f35b34801561020d57600080fd5b50610216610526565b6040516102239190611bc2565b60405180910390f35b34801561023857600080fd5b50610253600480360381019061024e919061196d565b610622565b6040516102609190611915565b60405180910390f35b34801561027557600080fd5b50610290600480360381019061028b9190611d19565b610866565b005b34801561029e57600080fd5b506102a7610b01565b6040516102b49190611d84565b60405180910390f35b3480156102c957600080fd5b506102e460048036038101906102df919061196d565b610b25565b6040516102f19190611e72565b60405180910390f35b34801561030657600080fd5b50610321600480360381019061031c9190611e94565b610ccf565b005b34801561032f57600080fd5b5061034a6004803603810190610345919061196d565b610dbf565b005b34801561035857600080fd5b50610373600480360381019061036e9190611f00565b610f3f565b005b61038f600480360381019061038a9190611f40565b610fff565b005b34801561039d57600080fd5b506103b860048036038101906103b39190611fa5565b611419565b005b3480156103c657600080fd5b506103e160048036038101906103dc9190611fe5565b6115f6565b005b600260205280600052604060002060009150905080546104029061205d565b80601f016020809104026020016040519081016040528092919081815260200182805461042e9061205d565b801561047b5780601f106104505761010080835404028352916020019161047b565b820191906000526020600020905b81548152906001019060200180831161045e57829003601f168201915b505050505081565b61048b6116d8565b60036000838152602001908152602001600020604051806080016040529081600082015481526020016001820160009054906101000a900460ff1660038111156104d8576104d76119a9565b5b60038111156104ea576104e96119a9565b5b8152602001600282015481526020016003820160009054906101000a900460ff1615151515815250509050919050565b60045481565b60015481565b6060600560003373ffffffffffffffffffffffffffffffffffffffff1673ffffffffffffffffffffffffffffffffffffffff168152602001908152602001600020805480602002602001604051908101604052809291908181526020016000905b828210156106195783829060005260206000209060020201604051806040016040529081600082015481526020016001820160009054906101000a900473ffffffffffffffffffffffffffffffffffffffff1673ffffffffffffffffffffffffffffffffffffffff1673ffffffffffffffffffffffffffffffffffffffff168152505081526020019060010190610587565b50505050905090565b6060600080600084815260200190815260200160002090508060010160009054906101000a900473ffffffffffffffffffffffffffffffffffffffff1673ffffffffffffffffffffffffffffffffffffffff163373ffffffffffffffffffffffffffffffffffffffff16146106cc576040517f08c379a00000000000000000000000000000000000000000000000000000000081526004016106c3906120da565b60405180910390fd5b8060050160009054906101000a900460ff161561071e576040517f08c379a000000000000000000000000000000000000000000000000000000000815260040161071590612146565b60405180910390fd5b8060030160009054906101000a900460ff1615610770576040517f08c379a0000000000000000000000000000000000000000000000000000000008152600401610767906121b2565b60405180910390fd5b60018160030160006101000a81548160ff0219169083151502179055503373ffffffffffffffffffffffffffffffffffffffff16837fff07445769a7abc5be8997616ed438ea9cce629d71de75a2a86abf6d4188193b60405160405180910390a38060020180546107e09061205d565b80601f016020809104026020016040519081016040528092919081815260200182805461080c9061205d565b80156108595780601f1061082e57610100808354040283529160200191610859565b820191906000526020600020905b81548152906001019060200180831161083c57829003601f168201915b5050505050915050919050565b600073ffffffffffffffffffffffffffffffffffffffff168273ffffffffffffffffffffffffffffffffffffffff16036108d5576040517f08c379a00000000000000000000000000000000000000000000000000000000081526004016108cc9061221e565b60405180910390fd5b6000815111610919576040517f08c379a00000000000000000000000000000000000000000000000000000000081526004016109109061228a565b60405180910390fd5b6040518060c001604052803373ffffffffffffffffffffffffffffffffffffffff1681526020018373ffffffffffffffffffffffffffffffffffffffff16815260200182815260200160001515815260200142815260200160001515815250600080600154815260200190815260200160002060008201518160000160006101000a81548173ffffffffffffffffffffffffffffffffffffffff021916908373ffffffffffffffffffffffffffffffffffffffff16021790555060208201518160010160006101000a81548173ffffffffffffffffffffffffffffffffffffffff021916908373ffffffffffffffffffffffffffffffffffffffff1602179055506040820151816002019081610a2f9190612456565b5060608201518160030160006101000a81548160ff0219169083151502179055506080820151816004015560a08201518160050160006101000a81548160ff0219169083151502179055509050508173ffffffffffffffffffffffffffffffffffffffff163373ffffffffffffffffffffffffffffffffffffffff166001547f6533c0d8a738079a5064424a83bd885c2dfb54138f56a58e1cb171c40fa480e042604051610add9190611aba565b60405180910390a460016000815480929190610af890612557565b91905055505050565b7f000000000000000000000000000000000000000000000000000000000000000081565b610b2d611714565b6000808381526020019081526020016000206040518060c00160405290816000820160009054906101000a900473ffffffffffffffffffffffffffffffffffffffff1673ffffffffffffffffffffffffffffffffffffffff1673ffffffffffffffffffffffffffffffffffffffff1681526020016001820160009054906101000a900473ffffffffffffffffffffffffffffffffffffffff1673ffffffffffffffffffffffffffffffffffffffff1673ffffffffffffffffffffffffffffffffffffffff168152602001600282018054610c069061205d565b80601f0160208091040260200160405190810160405280929190818152602001828054610c329061205d565b8015610c7f5780601f10610c5457610100808354040283529160200191610c7f565b820191906000526020600020905b815481529060010190602001808311610c6257829003601f168201915b505050505081526020016003820160009054906101000a900460ff16151515158152602001600482015481526020016005820160009054906101000a900460ff1615151515815250509050919050565b7f000000000000000000000000000000000000000000000000000000000000000073ffffffffffffffffffffffffffffffffffffffff163373ffffffffffffffffffffffffffffffffffffffff1614610d5d576040517f08c379a0000000000000000000000000000000000000000000000000000000008152600401610d54906125eb565b60405180910390fd5b60008111610da0576040517f08c379a0000000000000000000000000000000000000000000000000000000008152600401610d9790612657565b60405180910390fd5b8060036000848152602001908152602001600020600201819055505050565b600080600083815260200190815260200160002090508060010160009054906101000a900473ffffffffffffffffffffffffffffffffffffffff1673ffffffffffffffffffffffffffffffffffffffff163373ffffffffffffffffffffffffffffffffffffffff1614610e67576040517f08c379a0000000000000000000000000000000000000000000000000000000008152600401610e5e906120da565b60405180910390fd5b8060050160009054906101000a900460ff1615610eb9576040517f08c379a0000000000000000000000000000000000000000000000000000000008152600401610eb0906126c3565b60405180910390fd5b60018160050160006101000a81548160ff02191690831515021790555060405180602001604052806000815250816002019081610ef69190612456565b503373ffffffffffffffffffffffffffffffffffffffff16827f728f066f4d1d424ab5f5a591aa40aa650fe607112cd483e67cf2816f8a9631d860405160405180910390a35050565b7f000000000000000000000000000000000000000000000000000000000000000073ffffffffffffffffffffffffffffffffffffffff163373ffffffffffffffffffffffffffffffffffffffff1614610fcd576040517f08c379a0000000000000000000000000000000000000000000000000000000008152600401610fc4906125eb565b60405180910390fd5b806003600084815260200190815260200160002060030160006101000a81548160ff0219169083151502179055505050565b60006003600084815260200190815260200160002090508060030160009054906101000a900460ff16611067576040517f08c379a000000000000000000000000000000000000000000000000000000000815260040161105e9061272f565b60405180910390fd5b80600201543410156110ae576040517f08c379a00000000000000000000000000000000000000000000000000000000081526004016110a59061279b565b60405180910390fd5b600073ffffffffffffffffffffffffffffffffffffffff168273ffffffffffffffffffffffffffffffffffffffff160361111d576040517f08c379a000000000000000000000000000000000000000000000000000000000815260040161111490612807565b60405180910390fd5b60008160020154905060007f000000000000000000000000000000000000000000000000000000000000000073ffffffffffffffffffffffffffffffffffffffff168260405161116c90612858565b60006040518083038185875af1925050503d80600081146111a9576040519150601f19603f3d011682016040523d82523d6000602084013e6111ae565b606091505b50509050806111f2576040517f08c379a00000000000000000000000000000000000000000000000000000000081526004016111e9906128b9565b60405180910390fd5b813411156112b35760003373ffffffffffffffffffffffffffffffffffffffff16833461121f91906128d9565b60405161122b90612858565b60006040518083038185875af1925050503d8060008114611268576040519150601f19603f3d011682016040523d82523d6000602084013e61126d565b606091505b50509050806112b1576040517f08c379a00000000000000000000000000000000000000000000000000000000081526004016112a890612959565b60405180910390fd5b505b600560008573ffffffffffffffffffffffffffffffffffffffff1673ffffffffffffffffffffffffffffffffffffffff16815260200190815260200160002060405180604001604052808781526020013373ffffffffffffffffffffffffffffffffffffffff1681525090806001815401808255809150506001900390600052602060002090600202016000909190919091506000820151816000015560208201518160010160006101000a81548173ffffffffffffffffffffffffffffffffffffffff021916908373ffffffffffffffffffffffffffffffffffffffff16021790555050508373ffffffffffffffffffffffffffffffffffffffff163373ffffffffffffffffffffffffffffffffffffffff16867f1167e021c052af0780d3f03f62fe8141b28e148b94f2035f56395a8485de6c0f8660010160009054906101000a900460ff168660405161140a929190612988565b60405180910390a45050505050565b7f000000000000000000000000000000000000000000000000000000000000000073ffffffffffffffffffffffffffffffffffffffff163373ffffffffffffffffffffffffffffffffffffffff16146114a7576040517f08c379a000000000000000000000000000000000000000000000000000000000815260040161149e906125eb565b60405180910390fd5b600081116114ea576040517f08c379a00000000000000000000000000000000000000000000000000000000081526004016114e190612657565b60405180910390fd5b604051806080016040528060045481526020018360038111156115105761150f6119a9565b5b8152602001828152602001600115158152506003600060045481526020019081526020016000206000820151816000015560208201518160010160006101000a81548160ff0219169083600381111561156c5761156b6119a9565b5b02179055506040820151816002015560608201518160030160006101000a81548160ff0219169083151502179055509050506004547f95dc3ce0fc1e471fcf0121324c0c4a95e5e3b4d41dba6b05e5b6d9f83771a46d83836040516115d2929190612988565b60405180910390a2600460008154809291906115ed90612557565b91905055505050565b600081511161163a576040517f08c379a0000000000000000000000000000000000000000000000000000000008152600401611631906129fd565b60405180910390fd5b80600260003373ffffffffffffffffffffffffffffffffffffffff1673ffffffffffffffffffffffffffffffffffffffff16815260200190815260200160002090816116869190612456565b503373ffffffffffffffffffffffffffffffffffffffff167fe6ba8490d82d58e83a08a0bfc5814e885bad83c28c703c75bcbf5ed6054300f6826040516116cd9190611915565b60405180910390a250565b604051806080016040528060008152602001600060038111156116fe576116fd6119a9565b5b8152602001600081526020016000151581525090565b6040518060c00160405280600073ffffffffffffffffffffffffffffffffffffffff168152602001600073ffffffffffffffffffffffffffffffffffffffff16815260200160608152602001600015158152602001600081526020016000151581525090565b600082825260208201905092915050565b7f446972656374207061796d656e7473206e6f7420616c6c6f7765640000000000600082015250565b60006117c1601b8361177a565b91506117cc8261178b565b602082019050919050565b600060208201905081810360008301526117f0816117b4565b9050919050565b6000604051905090565b600080fd5b600080fd5b600073ffffffffffffffffffffffffffffffffffffffff82169050919050565b60006118368261180b565b9050919050565b6118468161182b565b811461185157600080fd5b50565b6000813590506118638161183d565b92915050565b60006020828403121561187f5761187e611801565b5b600061188d84828501611854565b91505092915050565b600081519050919050565b60005b838110156118bf5780820151818401526020810190506118a4565b60008484015250505050565b6000601f19601f8301169050919050565b60006118e782611896565b6118f1818561177a565b93506119018185602086016118a1565b61190a816118cb565b840191505092915050565b6000602082019050818103600083015261192f81846118dc565b905092915050565b6000819050919050565b61194a81611937565b811461195557600080fd5b50565b60008135905061196781611941565b92915050565b60006020828403121561198357611982611801565b5b600061199184828501611958565b91505092915050565b6119a381611937565b82525050565b7f4e487b7100000000000000000000000000000000000000000000000000000000600052602160045260246000fd5b600481106119e9576119e86119a9565b5b50565b60008190506119fa826119d8565b919050565b6000611a0a826119ec565b9050919050565b611a1a816119ff565b82525050565b60008115159050919050565b611a3581611a20565b82525050565b608082016000820151611a51600085018261199a565b506020820151611a646020850182611a11565b506040820151611a77604085018261199a565b506060820151611a8a6060850182611a2c565b50505050565b6000608082019050611aa56000830184611a3b565b92915050565b611ab481611937565b82525050565b6000602082019050611acf6000830184611aab565b92915050565b600081519050919050565b600082825260208201905092915050565b6000819050602082019050919050565b611b0a8161182b565b82525050565b604082016000820151611b26600085018261199a565b506020820151611b396020850182611b01565b50505050565b6000611b4b8383611b10565b60408301905092915050565b6000602082019050919050565b6000611b6f82611ad5565b611b798185611ae0565b9350611b8483611af1565b8060005b83811015611bb5578151611b9c8882611b3f565b9750611ba783611b57565b925050600181019050611b88565b5085935050505092915050565b60006020820190508181036000830152611bdc8184611b64565b905092915050565b600080fd5b600080fd5b7f4e487b7100000000000000000000000000000000000000000000000000000000600052604160045260246000fd5b611c26826118cb565b810181811067ffffffffffffffff82111715611c4557611c44611bee565b5b80604052505050565b6000611c586117f7565b9050611c648282611c1d565b919050565b600067ffffffffffffffff821115611c8457611c83611bee565b5b611c8d826118cb565b9050602081019050919050565b82818337600083830152505050565b6000611cbc611cb784611c69565b611c4e565b905082815260208101848484011115611cd857611cd7611be9565b5b611ce3848285611c9a565b509392505050565b600082601f830112611d0057611cff611be4565b5b8135611d10848260208601611ca9565b91505092915050565b60008060408385031215611d3057611d2f611801565b5b6000611d3e85828601611854565b925050602083013567ffffffffffffffff811115611d5f57611d5e611806565b5b611d6b85828601611ceb565b9150509250929050565b611d7e8161182b565b82525050565b6000602082019050611d996000830184611d75565b92915050565b600082825260208201905092915050565b6000611dbb82611896565b611dc58185611d9f565b9350611dd58185602086016118a1565b611dde816118cb565b840191505092915050565b600060c083016000830151611e016000860182611b01565b506020830151611e146020860182611b01565b5060408301518482036040860152611e2c8282611db0565b9150506060830151611e416060860182611a2c565b506080830151611e54608086018261199a565b5060a0830151611e6760a0860182611a2c565b508091505092915050565b60006020820190508181036000830152611e8c8184611de9565b905092915050565b60008060408385031215611eab57611eaa611801565b5b6000611eb985828601611958565b9250506020611eca85828601611958565b9150509250929050565b611edd81611a20565b8114611ee857600080fd5b50565b600081359050611efa81611ed4565b92915050565b60008060408385031215611f1757611f16611801565b5b6000611f2585828601611958565b9250506020611f3685828601611eeb565b9150509250929050565b60008060408385031215611f5757611f56611801565b5b6000611f6585828601611958565b9250506020611f7685828601611854565b9150509250929050565b60048110611f8d57600080fd5b50565b600081359050611f9f81611f80565b92915050565b60008060408385031215611fbc57611fbb611801565b5b6000611fca85828601611f90565b9250506020611fdb85828601611958565b9150509250929050565b600060208284031215611ffb57611ffa611801565b5b600082013567ffffffffffffffff81111561201957612018611806565b5b61202584828501611ceb565b91505092915050565b7f4e487b7100000000000000000000000000000000000000000000000000000000600052602260045260246000fd5b6000600282049050600182168061207557607f821691505b6020821081036120885761208761202e565b5b50919050565b7f4e6f7420617574686f72697a6564000000000000000000000000000000000000600082015250565b60006120c4600e8361177a565b91506120cf8261208e565b602082019050919050565b600060208201905081810360008301526120f3816120b7565b9050919050565b7f4e6f74652064656c657465640000000000000000000000000000000000000000600082015250565b6000612130600c8361177a565b915061213b826120fa565b602082019050919050565b6000602082019050818103600083015261215f81612123565b9050919050565b7f4e6f746520616c72656164792072656164000000000000000000000000000000600082015250565b600061219c60118361177a565b91506121a782612166565b602082019050919050565b600060208201905081810360008301526121cb8161218f565b9050919050565b7f496e76616c696420726563696576657200000000000000000000000000000000600082015250565b600061220860108361177a565b9150612213826121d2565b602082019050919050565b60006020820190508181036000830152612237816121fb565b9050919050565b7f456d70747920636f6e74656e7400000000000000000000000000000000000000600082015250565b6000612274600d8361177a565b915061227f8261223e565b602082019050919050565b600060208201905081810360008301526122a381612267565b9050919050565b60008190508160005260206000209050919050565b60006020601f8301049050919050565b600082821b905092915050565b60006008830261230c7fffffffffffffffffffffffffffffffffffffffffffffffffffffffffffffffff826122cf565b61231686836122cf565b95508019841693508086168417925050509392505050565b6000819050919050565b600061235361234e61234984611937565b61232e565b611937565b9050919050565b6000819050919050565b61236d83612338565b6123816123798261235a565b8484546122dc565b825550505050565b600090565b612396612389565b6123a1818484612364565b505050565b5b818110156123c5576123ba60008261238e565b6001810190506123a7565b5050565b601f82111561240a576123db816122aa565b6123e4846122bf565b810160208510156123f3578190505b6124076123ff856122bf565b8301826123a6565b50505b505050565b600082821c905092915050565b600061242d6000198460080261240f565b1980831691505092915050565b6000612446838361241c565b9150826002028217905092915050565b61245f82611896565b67ffffffffffffffff81111561247857612477611bee565b5b612482825461205d565b61248d8282856123c9565b600060209050601f8311600181146124c057600084156124ae578287015190505b6124b8858261243a565b865550612520565b601f1984166124ce866122aa565b60005b828110156124f6578489015182556001820191506020850194506020810190506124d1565b86831015612513578489015161250f601f89168261241c565b8355505b6001600288020188555050505b505050505050565b7f4e487b7100000000000000000000000000000000000000000000000000000000600052601160045260246000fd5b600061256282611937565b91507fffffffffffffffffffffffffffffffffffffffffffffffffffffffffffffffff820361259457612593612528565b5b600182019050919050565b7f4f6e6c79206f776e657200000000000000000000000000000000000000000000600082015250565b60006125d5600a8361177a565b91506125e08261259f565b602082019050919050565b60006020820190508181036000830152612604816125c8565b9050919050565b7f496e76616c696420707269636500000000000000000000000000000000000000600082015250565b6000612641600d8361177a565b915061264c8261260b565b602082019050919050565b6000602082019050818103600083015261267081612634565b9050919050565b7f4e6f746520616c72656164792064656c65746564000000000000000000000000600082015250565b60006126ad60148361177a565b91506126b882612677565b602082019050919050565b600060208201905081810360008301526126dc816126a0565b9050919050565b7f49636f6e206e6f7420617661696c61626c650000000000000000000000000000600082015250565b600061271960128361177a565b9150612724826126e3565b602082019050919050565b600060208201905081810360008301526127488161270c565b9050919050565b7f496e73756666696369656e74207061796d656e74000000000000000000000000600082015250565b600061278560148361177a565b91506127908261274f565b602082019050919050565b600060208201905081810360008301526127b481612778565b9050919050565b7f496e76616c696420726563697069656e74000000000000000000000000000000600082015250565b60006127f160118361177a565b91506127fc826127bb565b602082019050919050565b60006020820190508181036000830152612820816127e4565b9050919050565b600081905092915050565b50565b6000612842600083612827565b915061284d82612832565b600082019050919050565b600061286382612835565b9150819050919050565b7f5061796d656e74206661696c6564000000000000000000000000000000000000600082015250565b60006128a3600e8361177a565b91506128ae8261286d565b602082019050919050565b600060208201905081810360008301526128d281612896565b9050919050565b60006128e482611937565b91506128ef83611937565b925082820390508181111561290757612906612528565b5b92915050565b7f526566756e64206661696c656400000000000000000000000000000000000000600082015250565b6000612943600d8361177a565b915061294e8261290d565b602082019050919050565b6000602082019050818103600083015261297281612936565b9050919050565b612982816119ff565b82525050565b600060408201905061299d6000830185612979565b6129aa6020830184611aab565b9392505050565b7f4b65792063616e6e6f7420626520656d70747900000000000000000000000000600082015250565b60006129e760138361177a565b91506129f2826129b1565b602082019050919050565b60006020820190508181036000830152612a16816129da565b905091905056fea2646970667358221220e90e09e7e21fc5fcbddf2a312b2c02dcdb634f503c9efe853072f107d209641e64736f6c63430008130033",
  "linkReferences": {},
  "deployedLinkReferences": {}
}