{"contracts/SecureNotes.sol":{"SecureNotes":{"abi":[{"inputs":[],"stateMutability":"nonpayable","type":"constructor"},{"anonymous":false,"inputs":[{"indexed":true,"internalType":"uint256","name":"id","type":"uint256"},{"indexed":false,"internalType":"enum SecureNotes.IconType","name":"iconType","type":"uint8"},{"indexed":false,"internalType":"uint256","name":"price","type":"uint256"}],"name":"IconAdded","type":"event"},{"anonymous":false,"inputs":[{"indexed":true,"internalType":"uint256","name":"id","type":"uint256"},{"indexed":false,"internalType":"enum SecureNotes.IconType","name":"iconType","type":"uint8"},{"indexed":true,"internalType":"address","name":"buyer","type":"address"},{"indexed":true,"internalType":"address","name":"recipient","type":"address"},{"indexed":false,"internalType":"uint256","name":"price","type":"uint256"}],"name":"IconPurchased","type":"event"},{"anonymous":false,"inputs":[{"indexed":true,"internalType":"uint256","name":"id","type":"uint256"},{"indexed":true,"internalType":"address","name":"deleter","type":"address"}],"name":"NoteDeleted","type":"event"},{"anonymous":false,"inputs":[{"indexed":true,"internalType":"uint256","name":"id","type":"uint256"},{"indexed":true,"internalType":"address","name":"reader","type":"address"}],"name":"NoteRead","type":"event"},{"anonymous":false,"inputs":[{"indexed":true,"internalType":"uint256","name":"id","type":"uint256"},{"indexed":true,"internalType":"address","name":"sender","type":"address"},{"indexed":true,"internalType":"address","name":"recipient","type":"address"},{"indexed":false,"internalType":"uint256","name":"timestamp","type":"uint256"}],"name":"NoteSent","type":"event"},{"inputs":[{"internalType":"enum SecureNotes.IconType","name":"_type","type":"uint8"},{"internalType":"uint256","name":"_price","type":"uint256"}],"name":"addIcon","outputs":[],"stateMutability":"nonpayable","type":"function"},{"inputs":[{"internalType":"uint256","name":"_id","type":"uint256"},{"internalType":"address","name":"_recipient","type":"address"}],"name":"buyAndSendIcon","outputs":[],"stateMutability":"payable","type":"function"},{"inputs":[{"internalType":"uint256","name":"_id","type":"uint256"}],"name":"deleteNote","outputs":[],"stateMutability":"nonpayable","type":"function"},{"inputs":[{"internalType":"uint256","name":"_id","type":"uint256"}],"name":"getIcon","outputs":[{"components":[{"internalType":"uint256","name":"id","type":"uint256"},{"internalType":"enum SecureNotes.IconType","name":"iconType","type":"uint8"},{"internalType":"uint256","name":"price","type":"uint256"},{"internalType":"bool","name":"available","type":"bool"}],"internalType":"struct SecureNotes.Icon","name":"","type":"tuple"}],"stateMutability":"view","type":"function"},{"inputs":[],"name":"getMyReceivedIcons","outputs":[{"components":[{"internalType":"uint256","name":"iconId","type":"uint256"},{"internalType":"address","name":"sender","type":"address"}],"internalType":"struct SecureNotes.ReceivedIcon[]","name":"","type":"tuple[]"}],"stateMutability":"view","type":"function"},{"inputs":[{"internalType":"uint256","name":"_id","type":"uint256"}],"name":"getNote","outputs":[{"components":[{"internalType":"address","name":"sender","type":"address"},{"internalType":"address","name":"recipient","type":"address"},{"internalType":"string","name":"encryptedContent","type":"string"},{"internalType":"bool","name":"isRead","type":"bool"},{"internalType":"uint256","name":"timestamp","type":"uint256"},{"internalType":"bool","name":"isDeleted","type":"bool"}],"internalType":"struct SecureNotes.Note","name":"","type":"tuple"}],"stateMutability":"view","type":"function"},{"inputs":[],"name":"iconCount","outputs":[{"internalType":"uint256","name":"","type":"uint256"}],"stateMutability":"view","type":"function"},{"inputs":[],"name":"noteCount","outputs":[{"internalType":"uint256","name":"","type":"uint256"}],"stateMutability":"view","type":"function"},{"inputs":[],"name":"owner","outputs":[{"internalType":"address","name":"","type":"address"}],"stateMutability":"view","type":"function"},{"inputs":[{"internalType":"uint256","name":"_id","type":"uint256"}],"name":"readEncryptedNote","outputs":[{"internalType":"string","name":"","type":"string"}],"stateMutability":"nonpayable","type":"function"},{"inputs":[{"internalType":"address","name":"_recipient","type":"address"},{"internalType":"string","name":"_encryptedContent","type":"string"}],"name":"sendEncryptedNote","outputs":[],"stateMutability":"nonpayable","type":"function"},{"inputs":[{"internalType":"uint256","name":"_id","type":"uint256"},{"internalType":"bool","name":"_available","type":"bool"}],"name":"setIconAvailability","outputs":[],"stateMutability":"nonpayable","type":"function"},{"inputs":[{"internalType":"uint256","name":"_id","type":"uint256"},{"internalType":"uint256","name":"_newPrice","type":"uint256"}],"name":"updateIconPrice","outputs":[],"stateMutability":"nonpayable","type":"function"},{"stateMutability":"payable","type":"receive"}],"evm":{"bytecode":{"linkReferences":{},"object":"60a060405234801561001057600080fd5b503373ffffffffffffffffffffffffffffffffffffffff1660808173ffffffffffffffffffffffffffffffffffffffff168152505060805161276361007c600039600081816109d701528181610ba501528181610e1501528181610ffe01526112ef01526127636000f3fe6080604052600436106100c65760003560e01c80638da5cb5b1161007f578063c47177f411610059578063c47177f4146102c0578063c760f4d1146102e9578063ca13b6dd14610312578063d506e7a11461032e57610106565b80638da5cb5b1461022f578063a965a9411461025a578063b60ace0f1461029757610106565b80632a1a54461461010b5780632d2b4a0114610148578063317a4c76146101735780633781b90b1461019e57806343f603d7146101c957806355173d7f1461020657610106565b36610106576040517f08c379a00000000000000000000000000000000000000000000000000000000081526004016100fd906115c9565b60405180910390fd5b600080fd5b34801561011757600080fd5b50610132600480360381019061012d9190611633565b610357565b60405161013f9190611756565b60405180910390f35b34801561015457600080fd5b5061015d6103ee565b60405161016a9190611780565b60405180910390f35b34801561017f57600080fd5b506101886103f4565b6040516101959190611780565b60405180910390f35b3480156101aa57600080fd5b506101b36103fa565b6040516101c091906118ba565b60405180910390f35b3480156101d557600080fd5b506101f060048036038101906101eb9190611633565b6104f6565b6040516101fd919061195b565b60405180910390f35b34801561021257600080fd5b5061022d60048036038101906102289190611ade565b61073a565b005b34801561023b57600080fd5b506102446109d5565b6040516102519190611b49565b60405180910390f35b34801561026657600080fd5b50610281600480360381019061027c9190611633565b6109f9565b60405161028e9190611c37565b60405180910390f35b3480156102a357600080fd5b506102be60048036038101906102b99190611c59565b610ba3565b005b3480156102cc57600080fd5b506102e760048036038101906102e29190611633565b610c93565b005b3480156102f557600080fd5b50610310600480360381019061030b9190611cc5565b610e13565b005b61032c60048036038101906103279190611d05565b610ed3565b005b34801561033a57600080fd5b5061035560048036038101906103509190611d6a565b6112ed565b005b61035f6114ca565b60026000838152602001908152602001600020604051806080016040529081600082015481526020016001820160009054906101000a900460ff1660038111156103ac576103ab61166f565b5b60038111156103be576103bd61166f565b5b8152602001600282015481526020016003820160009054906101000a900460ff1615151515815250509050919050565b60035481565b60015481565b6060600460003373ffffffffffffffffffffffffffffffffffffffff1673ffffffffffffffffffffffffffffffffffffffff168152602001908152602001600020805480602002602001604051908101604052809291908181526020016000905b828210156104ed5783829060005260206000209060020201604051806040016040529081600082015481526020016001820160009054906101000a900473ffffffffffffffffffffffffffffffffffffffff1673ffffffffffffffffffffffffffffffffffffffff1673ffffffffffffffffffffffffffffffffffffffff16815250508152602001906001019061045b565b50505050905090565b6060600080600084815260200190815260200160002090508060010160009054906101000a900473ffffffffffffffffffffffffffffffffffffffff1673ffffffffffffffffffffffffffffffffffffffff163373ffffffffffffffffffffffffffffffffffffffff16146105a0576040517f08c379a000000000000000000000000000000000000000000000000000000000815260040161059790611df6565b60405180910390fd5b8060050160009054906101000a900460ff16156105f2576040517f08c379a00000000000000000000000000000000000000000000000000000000081526004016105e990611e62565b60405180910390fd5b8060030160009054906101000a900460ff1615610644576040517f08c379a000000000000000000000000000000000000000000000000000000000815260040161063b90611ece565b60405180910390fd5b60018160030160006101000a81548160ff0219169083151502179055503373ffffffffffffffffffffffffffffffffffffffff16837fff07445769a7abc5be8997616ed438ea9cce629d71de75a2a86abf6d4188193b60405160405180910390a38060020180546106b490611f1d565b80601f01602080910402602001604051908101604052809291908181526020018280546106e090611f1d565b801561072d5780601f106107025761010080835404028352916020019161072d565b820191906000526020600020905b81548152906001019060200180831161071057829003601f168201915b5050505050915050919050565b600073ffffffffffffffffffffffffffffffffffffffff168273ffffffffffffffffffffffffffffffffffffffff16036107a9576040517f08c379a00000000000000000000000000000000000000000000000000000000081526004016107a090611f9a565b60405180910390fd5b60008151116107ed576040517f08c379a00000000000000000000000000000000000000000000000000000000081526004016107e490612006565b60405180910390fd5b6040518060c001604052803373ffffffffffffffffffffffffffffffffffffffff1681526020018373ffffffffffffffffffffffffffffffffffffffff16815260200182815260200160001515815260200142815260200160001515815250600080600154815260200190815260200160002060008201518160000160006101000a81548173ffffffffffffffffffffffffffffffffffffffff021916908373ffffffffffffffffffffffffffffffffffffffff16021790555060208201518160010160006101000a81548173ffffffffffffffffffffffffffffffffffffffff021916908373ffffffffffffffffffffffffffffffffffffffff160217905550604082015181600201908161090391906121d2565b5060608201518160030160006101000a81548160ff0219169083151502179055506080820151816004015560a08201518160050160006101000a81548160ff0219169083151502179055509050508173ffffffffffffffffffffffffffffffffffffffff163373ffffffffffffffffffffffffffffffffffffffff166001547f6533c0d8a738079a5064424a83bd885c2dfb54138f56a58e1cb171c40fa480e0426040516109b19190611780565b60405180910390a4600160008154809291906109cc906122d3565b91905055505050565b7f000000000000000000000000000000000000000000000000000000000000000081565b610a01611506565b6000808381526020019081526020016000206040518060c00160405290816000820160009054906101000a900473ffffffffffffffffffffffffffffffffffffffff1673ffffffffffffffffffffffffffffffffffffffff1673ffffffffffffffffffffffffffffffffffffffff1681526020016001820160009054906101000a900473ffffffffffffffffffffffffffffffffffffffff1673ffffffffffffffffffffffffffffffffffffffff1673ffffffffffffffffffffffffffffffffffffffff168152602001600282018054610ada90611f1d565b80601f0160208091040260200160405190810160405280929190818152602001828054610b0690611f1d565b8015610b535780601f10610b2857610100808354040283529160200191610b53565b820191906000526020600020905b815481529060010190602001808311610b3657829003601f168201915b505050505081526020016003820160009054906101000a900460ff16151515158152602001600482015481526020016005820160009054906101000a900460ff1615151515815250509050919050565b7f000000000000000000000000000000000000000000000000000000000000000073ffffffffffffffffffffffffffffffffffffffff163373ffffffffffffffffffffffffffffffffffffffff1614610c31576040517f08c379a0000000000000000000000000000000000000000000000000000000008152600401610c2890612367565b60405180910390fd5b60008111610c74576040517f08c379a0000000000000000000000000000000000000000000000000000000008152600401610c6b906123d3565b60405180910390fd5b8060026000848152602001908152602001600020600201819055505050565b600080600083815260200190815260200160002090508060010160009054906101000a900473ffffffffffffffffffffffffffffffffffffffff1673ffffffffffffffffffffffffffffffffffffffff163373ffffffffffffffffffffffffffffffffffffffff1614610d3b576040517f08c379a0000000000000000000000000000000000000000000000000000000008152600401610d3290611df6565b60405180910390fd5b8060050160009054906101000a900460ff1615610d8d576040517f08c379a0000000000000000000000000000000000000000000000000000000008152600401610d849061243f565b60405180910390fd5b60018160050160006101000a81548160ff02191690831515021790555060405180602001604052806000815250816002019081610dca91906121d2565b503373ffffffffffffffffffffffffffffffffffffffff16827f728f066f4d1d424ab5f5a591aa40aa650fe607112cd483e67cf2816f8a9631d860405160405180910390a35050565b7f000000000000000000000000000000000000000000000000000000000000000073ffffffffffffffffffffffffffffffffffffffff163373ffffffffffffffffffffffffffffffffffffffff1614610ea1576040517f08c379a0000000000000000000000000000000000000000000000000000000008152600401610e9890612367565b60405180910390fd5b806002600084815260200190815260200160002060030160006101000a81548160ff0219169083151502179055505050565b60006002600084815260200190815260200160002090508060030160009054906101000a900460ff16610f3b576040517f08c379a0000000000000000000000000000000000000000000000000000000008152600401610f32906124ab565b60405180910390fd5b8060020154341015610f82576040517f08c379a0000000000000000000000000000000000000000000000000000000008152600401610f7990612517565b60405180910390fd5b600073ffffffffffffffffffffffffffffffffffffffff168273ffffffffffffffffffffffffffffffffffffffff1603610ff1576040517f08c379a0000000000000000000000000000000000000000000000000000000008152600401610fe890612583565b60405180910390fd5b60008160020154905060007f000000000000000000000000000000000000000000000000000000000000000073ffffffffffffffffffffffffffffffffffffffff1682604051611040906125d4565b60006040518083038185875af1925050503d806000811461107d576040519150601f19603f3d011682016040523d82523d6000602084013e611082565b606091505b50509050806110c6576040517f08c379a00000000000000000000000000000000000000000000000000000000081526004016110bd90612635565b60405180910390fd5b813411156111875760003373ffffffffffffffffffffffffffffffffffffffff1683346110f39190612655565b6040516110ff906125d4565b60006040518083038185875af1925050503d806000811461113c576040519150601f19603f3d011682016040523d82523d6000602084013e611141565b606091505b5050905080611185576040517f08c379a000000000000000000000000000000000000000000000000000000000815260040161117c906126d5565b60405180910390fd5b505b600460008573ffffffffffffffffffffffffffffffffffffffff1673ffffffffffffffffffffffffffffffffffffffff16815260200190815260200160002060405180604001604052808781526020013373ffffffffffffffffffffffffffffffffffffffff1681525090806001815401808255809150506001900390600052602060002090600202016000909190919091506000820151816000015560208201518160010160006101000a81548173ffffffffffffffffffffffffffffffffffffffff021916908373ffffffffffffffffffffffffffffffffffffffff16021790555050508373ffffffffffffffffffffffffffffffffffffffff163373ffffffffffffffffffffffffffffffffffffffff16867f1167e021c052af0780d3f03f62fe8141b28e148b94f2035f56395a8485de6c0f8660010160009054906101000a900460ff16866040516112de929190612704565b60405180910390a45050505050565b7f000000000000000000000000000000000000000000000000000000000000000073ffffffffffffffffffffffffffffffffffffffff163373ffffffffffffffffffffffffffffffffffffffff161461137b576040517f08c379a000000000000000000000000000000000000000000000000000000000815260040161137290612367565b60405180910390fd5b600081116113be576040517f08c379a00000000000000000000000000000000000000000000000000000000081526004016113b5906123d3565b60405180910390fd5b604051806080016040528060035481526020018360038111156113e4576113e361166f565b5b8152602001828152602001600115158152506002600060035481526020019081526020016000206000820151816000015560208201518160010160006101000a81548160ff021916908360038111156114405761143f61166f565b5b02179055506040820151816002015560608201518160030160006101000a81548160ff0219169083151502179055509050506003547f95dc3ce0fc1e471fcf0121324c0c4a95e5e3b4d41dba6b05e5b6d9f83771a46d83836040516114a6929190612704565b60405180910390a2600360008154809291906114c1906122d3565b91905055505050565b604051806080016040528060008152602001600060038111156114f0576114ef61166f565b5b8152602001600081526020016000151581525090565b6040518060c00160405280600073ffffffffffffffffffffffffffffffffffffffff168152602001600073ffffffffffffffffffffffffffffffffffffffff16815260200160608152602001600015158152602001600081526020016000151581525090565b600082825260208201905092915050565b7f446972656374207061796d656e7473206e6f7420616c6c6f7765640000000000600082015250565b60006115b3601b8361156c565b91506115be8261157d565b602082019050919050565b600060208201905081810360008301526115e2816115a6565b9050919050565b6000604051905090565b600080fd5b600080fd5b6000819050919050565b611610816115fd565b811461161b57600080fd5b50565b60008135905061162d81611607565b92915050565b600060208284031215611649576116486115f3565b5b60006116578482850161161e565b91505092915050565b611669816115fd565b82525050565b7f4e487b7100000000000000000000000000000000000000000000000000000000600052602160045260246000fd5b600481106116af576116ae61166f565b5b50565b60008190506116c08261169e565b919050565b60006116d0826116b2565b9050919050565b6116e0816116c5565b82525050565b60008115159050919050565b6116fb816116e6565b82525050565b6080820160008201516117176000850182611660565b50602082015161172a60208501826116d7565b50604082015161173d6040850182611660565b50606082015161175060608501826116f2565b50505050565b600060808201905061176b6000830184611701565b92915050565b61177a816115fd565b82525050565b60006020820190506117956000830184611771565b92915050565b600081519050919050565b600082825260208201905092915050565b6000819050602082019050919050565b600073ffffffffffffffffffffffffffffffffffffffff82169050919050565b60006117f2826117c7565b9050919050565b611802816117e7565b82525050565b60408201600082015161181e6000850182611660565b50602082015161183160208501826117f9565b50505050565b60006118438383611808565b60408301905092915050565b6000602082019050919050565b60006118678261179b565b61187181856117a6565b935061187c836117b7565b8060005b838110156118ad5781516118948882611837565b975061189f8361184f565b925050600181019050611880565b5085935050505092915050565b600060208201905081810360008301526118d4818461185c565b905092915050565b600081519050919050565b60005b838110156119055780820151818401526020810190506118ea565b60008484015250505050565b6000601f19601f8301169050919050565b600061192d826118dc565b611937818561156c565b93506119478185602086016118e7565b61195081611911565b840191505092915050565b600060208201905081810360008301526119758184611922565b905092915050565b611986816117e7565b811461199157600080fd5b50565b6000813590506119a38161197d565b92915050565b600080fd5b600080fd5b7f4e487b7100000000000000000000000000000000000000000000000000000000600052604160045260246000fd5b6119eb82611911565b810181811067ffffffffffffffff82111715611a0a57611a096119b3565b5b80604052505050565b6000611a1d6115e9565b9050611a2982826119e2565b919050565b600067ffffffffffffffff821115611a4957611a486119b3565b5b611a5282611911565b9050602081019050919050565b82818337600083830152505050565b6000611a81611a7c84611a2e565b611a13565b905082815260208101848484011115611a9d57611a9c6119ae565b5b611aa8848285611a5f565b509392505050565b600082601f830112611ac557611ac46119a9565b5b8135611ad5848260208601611a6e565b91505092915050565b60008060408385031215611af557611af46115f3565b5b6000611b0385828601611994565b925050602083013567ffffffffffffffff811115611b2457611b236115f8565b5b611b3085828601611ab0565b9150509250929050565b611b43816117e7565b82525050565b6000602082019050611b5e6000830184611b3a565b92915050565b600082825260208201905092915050565b6000611b80826118dc565b611b8a8185611b64565b9350611b9a8185602086016118e7565b611ba381611911565b840191505092915050565b600060c083016000830151611bc660008601826117f9565b506020830151611bd960208601826117f9565b5060408301518482036040860152611bf18282611b75565b9150506060830151611c0660608601826116f2565b506080830151611c196080860182611660565b5060a0830151611c2c60a08601826116f2565b508091505092915050565b60006020820190508181036000830152611c518184611bae565b905092915050565b60008060408385031215611c7057611c6f6115f3565b5b6000611c7e8582860161161e565b9250506020611c8f8582860161161e565b9150509250929050565b611ca2816116e6565b8114611cad57600080fd5b50565b600081359050611cbf81611c99565b92915050565b60008060408385031215611cdc57611cdb6115f3565b5b6000611cea8582860161161e565b9250506020611cfb85828601611cb0565b9150509250929050565b60008060408385031215611d1c57611d1b6115f3565b5b6000611d2a8582860161161e565b9250506020611d3b85828601611994565b9150509250929050565b60048110611d5257600080fd5b50565b600081359050611d6481611d45565b92915050565b60008060408385031215611d8157611d806115f3565b5b6000611d8f85828601611d55565b9250506020611da08582860161161e565b9150509250929050565b7f4e6f7420617574686f72697a6564000000000000000000000000000000000000600082015250565b6000611de0600e8361156c565b9150611deb82611daa565b602082019050919050565b60006020820190508181036000830152611e0f81611dd3565b9050919050565b7f4e6f74652064656c657465640000000000000000000000000000000000000000600082015250565b6000611e4c600c8361156c565b9150611e5782611e16565b602082019050919050565b60006020820190508181036000830152611e7b81611e3f565b9050919050565b7f4e6f746520616c72656164792072656164000000000000000000000000000000600082015250565b6000611eb860118361156c565b9150611ec382611e82565b602082019050919050565b60006020820190508181036000830152611ee781611eab565b9050919050565b7f4e487b7100000000000000000000000000000000000000000000000000000000600052602260045260246000fd5b60006002820490506001821680611f3557607f821691505b602082108103611f4857611f47611eee565b5b50919050565b7f496e76616c696420726563696576657200000000000000000000000000000000600082015250565b6000611f8460108361156c565b9150611f8f82611f4e565b602082019050919050565b60006020820190508181036000830152611fb381611f77565b9050919050565b7f456d70747920636f6e74656e7400000000000000000000000000000000000000600082015250565b6000611ff0600d8361156c565b9150611ffb82611fba565b602082019050919050565b6000602082019050818103600083015261201f81611fe3565b9050919050565b60008190508160005260206000209050919050565b60006020601f8301049050919050565b600082821b905092915050565b6000600883026120887fffffffffffffffffffffffffffffffffffffffffffffffffffffffffffffffff8261204b565b612092868361204b565b95508019841693508086168417925050509392505050565b6000819050919050565b60006120cf6120ca6120c5846115fd565b6120aa565b6115fd565b9050919050565b6000819050919050565b6120e9836120b4565b6120fd6120f5826120d6565b848454612058565b825550505050565b600090565b612112612105565b61211d8184846120e0565b505050565b5b818110156121415761213660008261210a565b600181019050612123565b5050565b601f8211156121865761215781612026565b6121608461203b565b8101602085101561216f578190505b61218361217b8561203b565b830182612122565b50505b505050565b600082821c905092915050565b60006121a96000198460080261218b565b1980831691505092915050565b60006121c28383612198565b9150826002028217905092915050565b6121db826118dc565b67ffffffffffffffff8111156121f4576121f36119b3565b5b6121fe8254611f1d565b612209828285612145565b600060209050601f83116001811461223c576000841561222a578287015190505b61223485826121b6565b86555061229c565b601f19841661224a86612026565b60005b828110156122725784890151825560018201915060208501945060208101905061224d565b8683101561228f578489015161228b601f891682612198565b8355505b6001600288020188555050505b505050505050565b7f4e487b7100000000000000000000000000000000000000000000000000000000600052601160045260246000fd5b60006122de826115fd565b91507fffffffffffffffffffffffffffffffffffffffffffffffffffffffffffffffff82036123105761230f6122a4565b5b600182019050919050565b7f4f6e6c79206f776e657200000000000000000000000000000000000000000000600082015250565b6000612351600a8361156c565b915061235c8261231b565b602082019050919050565b6000602082019050818103600083015261238081612344565b9050919050565b7f496e76616c696420707269636500000000000000000000000000000000000000600082015250565b60006123bd600d8361156c565b91506123c882612387565b602082019050919050565b600060208201905081810360008301526123ec816123b0565b9050919050565b7f4e6f746520616c72656164792064656c65746564000000000000000000000000600082015250565b600061242960148361156c565b9150612434826123f3565b602082019050919050565b600060208201905081810360008301526124588161241c565b9050919050565b7f49636f6e206e6f7420617661696c61626c650000000000000000000000000000600082015250565b600061249560128361156c565b91506124a08261245f565b602082019050919050565b600060208201905081810360008301526124c481612488565b9050919050565b7f496e73756666696369656e74207061796d656e74000000000000000000000000600082015250565b600061250160148361156c565b915061250c826124cb565b602082019050919050565b60006020820190508181036000830152612530816124f4565b9050919050565b7f496e76616c696420726563697069656e74000000000000000000000000000000600082015250565b600061256d60118361156c565b915061257882612537565b602082019050919050565b6000602082019050818103600083015261259c81612560565b9050919050565b600081905092915050565b50565b60006125be6000836125a3565b91506125c9826125ae565b600082019050919050565b60006125df826125b1565b9150819050919050565b7f5061796d656e74206661696c6564000000000000000000000000000000000000600082015250565b600061261f600e8361156c565b915061262a826125e9565b602082019050919050565b6000602082019050818103600083015261264e81612612565b9050919050565b6000612660826115fd565b915061266b836115fd565b9250828203905081811115612683576126826122a4565b5b92915050565b7f526566756e64206661696c656400000000000000000000000000000000000000600082015250565b60006126bf600d8361156c565b91506126ca82612689565b602082019050919050565b600060208201905081810360008301526126ee816126b2565b9050919050565b6126fe816116c5565b82525050565b600060408201905061271960008301856126f5565b6127266020830184611771565b939250505056fea2646970667358221220aa1298943730339d150afcff58b3005f0a874ce80c4ea9bf3e685b3d3e1fdace64736f6c63430008130033","opcodes":"PUSH1 0xA0 PUSH1 0x40 MSTORE CALLVALUE DUP1 ISZERO PUSH2 0x10 JUMPI PUSH1 0x0 DUP1 REVERT JUMPDEST POP CALLER PUSH20 0xFFFFFFFFFFFFFFFFFFFFFFFFFFFFFFFFFFFFFFFF AND PUSH1 0x80 DUP2 PUSH20 0xFFFFFFFFFFFFFFFFFFFFFFFFFFFFFFFFFFFFFFFF AND DUP2 MSTORE POP POP PUSH1 0x80 MLOAD PUSH2 0x2763 PUSH2 0x7C PUSH1 0x0 CODECOPY PUSH1 0x0 DUP2 DUP2 PUSH2 0x9D7 ADD MSTORE DUP2 DUP2 PUSH2 0xBA5 ADD MSTORE DUP2 DUP2 PUSH2 0xE15 ADD MSTORE DUP2 DUP2 PUSH2 0xFFE ADD MSTORE PUSH2 0x12EF ADD MSTORE PUSH2 0x2763 PUSH1 0x0 RETURN INVALID PUSH1 0x80 PUSH1 0x40 MSTORE PUSH1 0x4 CALLDATASIZE LT PUSH2 0xC6 JUMPI PUSH1 0x0 CALLDATALOAD PUSH1 0xE0 SHR DUP1 PUSH4 0x8DA5CB5B GT PUSH2 0x7F JUMPI DUP1 PUSH4 0xC47177F4 GT PUSH2 0x59 JUMPI DUP1 PUSH4 0xC47177F4 EQ PUSH2 0x2C0 JUMPI DUP1 PUSH4 0xC760F4D1 EQ PUSH2 0x2E9 JUMPI DUP1 PUSH4 0xCA13B6DD EQ PUSH2 0x312 JUMPI DUP1 PUSH4 0xD506E7A1 EQ PUSH2 0x32E JUMPI PUSH2 0x106 JUMP JUMPDEST DUP1 PUSH4 0x8DA5CB5B EQ PUSH2 0x22F JUMPI DUP1 PUSH4 0xA965A941 EQ PUSH2 0x25A JUMPI DUP1 PUSH4 0xB60ACE0F EQ PUSH2 0x297 JUMPI PUSH2 0x106 JUMP JUMPDEST DUP1 PUSH4 0x2A1A5446 EQ PUSH2 0x10B JUMPI DUP1 PUSH4 0x2D2B4A01 EQ PUSH2 0x148 JUMPI DUP1 PUSH4 0x317A4C76 EQ PUSH2 0x173 JUMPI DUP1 PUSH4 0x3781B90B EQ PUSH2 0x19E JUMPI DUP1 PUSH4 0x43F603D7 EQ PUSH2 0x1C9 JUMPI DUP1 PUSH4 0x55173D7F EQ PUSH2 0x206 JUMPI PUSH2 0x106 JUMP JUMPDEST CALLDATASIZE PUSH2 0x106 JUMPI PUSH1 0x40 MLOAD PUSH32 0x8C379A000000000000000000000000000000000000000000000000000000000 DUP2 MSTORE PUSH1 0x4 ADD PUSH2 0xFD SWAP1 PUSH2 0x15C9 JUMP JUMPDEST PUSH1 0x40 MLOAD DUP1 SWAP2 SUB SWAP1 REVERT JUMPDEST PUSH1 0x0 DUP1 REVERT JUMPDEST CALLVALUE DUP1 ISZERO PUSH2 0x117 JUMPI PUSH1 0x0 DUP1 REVERT JUMPDEST POP PUSH2 0x132 PUSH1 0x4 DUP1 CALLDATASIZE SUB DUP2 ADD SWAP1 PUSH2 0x12D SWAP2 SWAP1 PUSH2 0x1633 JUMP JUMPDEST PUSH2 0x357 JUMP JUMPDEST PUSH1 0x40 MLOAD PUSH2 0x13F SWAP2 SWAP1 PUSH2 0x1756 JUMP JUMPDEST PUSH1 0x40 MLOAD DUP1 SWAP2 SUB SWAP1 RETURN JUMPDEST CALLVALUE DUP1 ISZERO PUSH2 0x154 JUMPI PUSH1 0x0 DUP1 REVERT JUMPDEST POP PUSH2 0x15D PUSH2 0x3EE JUMP JUMPDEST PUSH1 0x40 MLOAD PUSH2 0x16A SWAP2 SWAP1 PUSH2 0x1780 JUMP JUMPDEST PUSH1 0x40 MLOAD DUP1 SWAP2 SUB SWAP1 RETURN JUMPDEST CALLVALUE DUP1 ISZERO PUSH2 0x17F JUMPI PUSH1 0x0 DUP1 REVERT JUMPDEST POP PUSH2 0x188 PUSH2 0x3F4 JUMP JUMPDEST PUSH1 0x40 MLOAD PUSH2 0x195 SWAP2 SWAP1 PUSH2 0x1780 JUMP JUMPDEST PUSH1 0x40 MLOAD DUP1 SWAP2 SUB SWAP1 RETURN JUMPDEST CALLVALUE DUP1 ISZERO PUSH2 0x1AA JUMPI PUSH1 0x0 DUP1 REVERT JUMPDEST POP PUSH2 0x1B3 PUSH2 0x3FA JUMP JUMPDEST PUSH1 0x40 MLOAD PUSH2 0x1C0 SWAP2 SWAP1 PUSH2 0x18BA JUMP JUMPDEST PUSH1 0x40 MLOAD DUP1 SWAP2 SUB SWAP1 RETURN JUMPDEST CALLVALUE DUP1 ISZERO PUSH2 0x1D5 JUMPI PUSH1 0x0 DUP1 REVERT JUMPDEST POP PUSH2 0x1F0 PUSH1 0x4 DUP1 CALLDATASIZE SUB DUP2 ADD SWAP1 PUSH2 0x1EB SWAP2 SWAP1 PUSH2 0x1633 JUMP JUMPDEST PUSH2 0x4F6 JUMP JUMPDEST PUSH1 0x40 MLOAD PUSH2 0x1FD SWAP2 SWAP1 PUSH2 0x195B JUMP JUMPDEST PUSH1 0x40 MLOAD DUP1 SWAP2 SUB SWAP1 RETURN JUMPDEST CALLVALUE DUP1 ISZERO PUSH2 0x212 JUMPI PUSH1 0x0 DUP1 REVERT JUMPDEST POP PUSH2 0x22D PUSH1 0x4 DUP1 CALLDATASIZE SUB DUP2 ADD SWAP1 PUSH2 0x228 SWAP2 SWAP1 PUSH2 0x1ADE JUMP JUMPDEST PUSH2 0x73A JUMP JUMPDEST STOP JUMPDEST CALLVALUE DUP1 ISZERO PUSH2 0x23B JUMPI PUSH1 0x0 DUP1 REVERT JUMPDEST POP PUSH2 0x244 PUSH2 0x9D5 JUMP JUMPDEST PUSH1 0x40 MLOAD PUSH2 0x251 SWAP2 SWAP1 PUSH2 0x1B49 JUMP JUMPDEST PUSH1 0x40 MLOAD DUP1 SWAP2 SUB SWAP1 RETURN JUMPDEST CALLVALUE DUP1 ISZERO PUSH2 0x266 JUMPI PUSH1 0x0 DUP1 REVERT JUMPDEST POP PUSH2 0x281 PUSH1 0x4 DUP1 CALLDATASIZE SUB DUP2 ADD SWAP1 PUSH2 0x27C SWAP2 SWAP1 PUSH2 0x1633 JUMP JUMPDEST PUSH2 0x9F9 JUMP JUMPDEST PUSH1 0x40 MLOAD PUSH2 0x28E SWAP2 SWAP1 PUSH2 0x1C37 JUMP JUMPDEST PUSH1 0x40 MLOAD DUP1 SWAP2 SUB SWAP1 RETURN JUMPDEST CALLVALUE DUP1 ISZERO PUSH2 0x2A3 JUMPI PUSH1 0x0 DUP1 REVERT JUMPDEST POP PUSH2 0x2BE PUSH1 0x4 DUP1 CALLDATASIZE SUB DUP2 ADD SWAP1 PUSH2 0x2B9 SWAP2 SWAP1 PUSH2 0x1C59 JUMP JUMPDEST PUSH2 0xBA3 JUMP JUMPDEST STOP JUMPDEST CALLVALUE DUP1 ISZERO PUSH2 0x2CC JUMPI PUSH1 0x0 DUP1 REVERT JUMPDEST POP PUSH2 0x2E7 PUSH1 0x4 DUP1 CALLDATASIZE SUB DUP2 ADD SWAP1 PUSH2 0x2E2 SWAP2 SWAP1 PUSH2 0x1633 JUMP JUMPDEST PUSH2 0xC93 JUMP JUMPDEST STOP JUMPDEST CALLVALUE DUP1 ISZERO PUSH2 0x2F5 JUMPI PUSH1 0x0 DUP1 REVERT JUMPDEST POP PUSH2 0x310 PUSH1 0x4 DUP1 CALLDATASIZE SUB DUP2 ADD SWAP1 PUSH2 0x30B SWAP2 SWAP1 PUSH2 0x1CC5 JUMP JUMPDEST PUSH2 0xE13 JUMP JUMPDEST STOP JUMPDEST PUSH2 0x32C PUSH1 0x4 DUP1 CALLDATASIZE SUB DUP2 ADD SWAP1 PUSH2 0x327 SWAP2 SWAP1 PUSH2 0x1D05 JUMP JUMPDEST PUSH2 0xED3 JUMP JUMPDEST STOP JUMPDEST CALLVALUE DUP1 ISZERO PUSH2 0x33A JUMPI PUSH1 0x0 DUP1 REVERT JUMPDEST POP PUSH2 0x355 PUSH1 0x4 DUP1 CALLDATASIZE SUB DUP2 ADD SWAP1 PUSH2 0x350 SWAP2 SWAP1 PUSH2 0x1D6A JUMP JUMPDEST PUSH2 0x12ED JUMP JUMPDEST STOP JUMPDEST PUSH2 0x35F PUSH2 0x14CA JUMP JUMPDEST PUSH1 0x2 PUSH1 0x0 DUP4 DUP2 MSTORE PUSH1 0x20 ADD SWAP1 DUP2 MSTORE PUSH1 0x20 ADD PUSH1 0x0 KECCAK256 PUSH1 0x40 MLOAD DUP1 PUSH1 0x80 ADD PUSH1 0x40 MSTORE SWAP1 DUP2 PUSH1 0x0 DUP3 ADD SLOAD DUP2 MSTORE PUSH1 0x20 ADD PUSH1 0x1 DUP3 ADD PUSH1 0x0 SWAP1 SLOAD SWAP1 PUSH2 0x100 EXP SWAP1 DIV PUSH1 0xFF AND PUSH1 0x3 DUP2 GT ISZERO PUSH2 0x3AC JUMPI PUSH2 0x3AB PUSH2 0x166F JUMP JUMPDEST JUMPDEST PUSH1 0x3 DUP2 GT ISZERO PUSH2 0x3BE JUMPI PUSH2 0x3BD PUSH2 0x166F JUMP JUMPDEST JUMPDEST DUP2 MSTORE PUSH1 0x20 ADD PUSH1 0x2 DUP3 ADD SLOAD DUP2 MSTORE PUSH1 0x20 ADD PUSH1 0x3 DUP3 ADD PUSH1 0x0 SWAP1 SLOAD SWAP1 PUSH2 0x100 EXP SWAP1 DIV PUSH1 0xFF AND ISZERO ISZERO ISZERO ISZERO DUP2 MSTORE POP POP SWAP1 POP SWAP2 SWAP1 POP JUMP JUMPDEST PUSH1 0x3 SLOAD DUP2 JUMP JUMPDEST PUSH1 0x1 SLOAD DUP2 JUMP JUMPDEST PUSH1 0x60 PUSH1 0x4 PUSH1 0x0 CALLER PUSH20 0xFFFFFFFFFFFFFFFFFFFFFFFFFFFFFFFFFFFFFFFF AND PUSH20 0xFFFFFFFFFFFFFFFFFFFFFFFFFFFFFFFFFFFFFFFF AND DUP2 MSTORE PUSH1 0x20 ADD SWAP1 DUP2 MSTORE PUSH1 0x20 ADD PUSH1 0x0 KECCAK256 DUP1 SLOAD DUP1 PUSH1 0x20 MUL PUSH1 0x20 ADD PUSH1 0x40 MLOAD SWAP1 DUP2 ADD PUSH1 0x40 MSTORE DUP1 SWAP3 SWAP2 SWAP1 DUP2 DUP2 MSTORE PUSH1 0x20 ADD PUSH1 0x0 SWAP1 JUMPDEST DUP3 DUP3 LT ISZERO PUSH2 0x4ED JUMPI DUP4 DUP3 SWAP1 PUSH1 0x0 MSTORE PUSH1 0x20 PUSH1 0x0 KECCAK256 SWAP1 PUSH1 0x2 MUL ADD PUSH1 0x40 MLOAD DUP1 PUSH1 0x40 ADD PUSH1 0x40 MSTORE SWAP1 DUP2 PUSH1 0x0 DUP3 ADD SLOAD DUP2 MSTORE PUSH1 0x20 ADD PUSH1 0x1 DUP3 ADD PUSH1 0x0 SWAP1 SLOAD SWAP1 PUSH2 0x100 EXP SWAP1 DIV PUSH20 0xFFFFFFFFFFFFFFFFFFFFFFFFFFFFFFFFFFFFFFFF AND PUSH20 0xFFFFFFFFFFFFFFFFFFFFFFFFFFFFFFFFFFFFFFFF AND PUSH20 0xFFFFFFFFFFFFFFFFFFFFFFFFFFFFFFFFFFFFFFFF AND DUP2 MSTORE POP POP DUP2 MSTORE PUSH1 0x20 ADD SWAP1 PUSH1 0x1 ADD SWAP1 PUSH2 0x45B JUMP JUMPDEST POP POP POP POP SWAP1 POP SWAP1 JUMP JUMPDEST PUSH1 0x60 PUSH1 0x0 DUP1 PUSH1 0x0 DUP5 DUP2 MSTORE PUSH1 0x20 ADD SWAP1 DUP2 MSTORE PUSH1 0x20 ADD PUSH1 0x0 KECCAK256 SWAP1 POP DUP1 PUSH1 0x1 ADD PUSH1 0x0 SWAP1 SLOAD SWAP1 PUSH2 0x100 EXP SWAP1 DIV PUSH20 0xFFFFFFFFFFFFFFFFFFFFFFFFFFFFFFFFFFFFFFFF AND PUSH20 0xFFFFFFFFFFFFFFFFFFFFFFFFFFFFFFFFFFFFFFFF AND CALLER PUSH20 0xFFFFFFFFFFFFFFFFFFFFFFFFFFFFFFFFFFFFFFFF AND EQ PUSH2 0x5A0 JUMPI PUSH1 0x40 MLOAD PUSH32 0x8C379A000000000000000000000000000000000000000000000000000000000 DUP2 MSTORE PUSH1 0x4 ADD PUSH2 0x597 SWAP1 PUSH2 0x1DF6 JUMP JUMPDEST PUSH1 0x40 MLOAD DUP1 SWAP2 SUB SWAP1 REVERT JUMPDEST DUP1 PUSH1 0x5 ADD PUSH1 0x0 SWAP1 SLOAD SWAP1 PUSH2 0x100 EXP SWAP1 DIV PUSH1 0xFF AND ISZERO PUSH2 0x5F2 JUMPI PUSH1 0x40 MLOAD PUSH32 0x8C379A000000000000000000000000000000000000000000000000000000000 DUP2 MSTORE PUSH1 0x4 ADD PUSH2 0x5E9 SWAP1 PUSH2 0x1E62 JUMP JUMPDEST PUSH1 0x40 MLOAD DUP1 SWAP2 SUB SWAP1 REVERT JUMPDEST DUP1 PUSH1 0x3 ADD PUSH1 0x0 SWAP1 SLOAD SWAP1 PUSH2 0x100 EXP SWAP1 DIV PUSH1 0xFF AND ISZERO PUSH2 0x644 JUMPI PUSH1 0x40 MLOAD PUSH32 0x8C379A000000000000000000000000000000000000000000000000000000000 DUP2 MSTORE PUSH1 0x4 ADD PUSH2 0x63B SWAP1 PUSH2 0x1ECE JUMP JUMPDEST PUSH1 0x40 MLOAD DUP1 SWAP2 SUB SWAP1 REVERT JUMPDEST PUSH1 0x1 DUP2 PUSH1 0x3 ADD PUSH1 0x0 PUSH2 0x100 EXP DUP2 SLOAD DUP2 PUSH1 0xFF MUL NOT AND SWAP1 DUP4 ISZERO ISZERO MUL OR SWAP1 SSTORE POP CALLER PUSH20 0xFFFFFFFFFFFFFFFFFFFFFFFFFFFFFFFFFFFFFFFF AND DUP4 PUSH32 0xFF07445769A7ABC5BE8997616ED438EA9CCE629D71DE75A2A86ABF6D4188193B PUSH1 0x40 MLOAD PUSH1 0x40 MLOAD DUP1 SWAP2 SUB SWAP1 LOG3 DUP1 PUSH1 0x2 ADD DUP1 SLOAD PUSH2 0x6B4 SWAP1 PUSH2 0x1F1D JUMP JUMPDEST DUP1 PUSH1 0x1F ADD PUSH1 0x20 DUP1 SWAP2 DIV MUL PUSH1 0x20 ADD PUSH1 0x40 MLOAD SWAP1 DUP2 ADD PUSH1 0x40 MSTORE DUP1 SWAP3 SWAP2 SWAP1 DUP2 DUP2 MSTORE PUSH1 0x20 ADD DUP3 DUP1 SLOAD PUSH2 0x6E0 SWAP1 PUSH2 0x1F1D JUMP JUMPDEST DUP1 ISZERO PUSH2 0x72D JUMPI DUP1 PUSH1 0x1F LT PUSH2 0x702 JUMPI PUSH2 0x100 DUP1 DUP4 SLOAD DIV MUL DUP4 MSTORE SWAP2 PUSH1 0x20 ADD SWAP2 PUSH2 0x72D JUMP JUMPDEST DUP3 ADD SWAP2 SWAP1 PUSH1 0x0 MSTORE PUSH1 0x20 PUSH1 0x0 KECCAK256 SWAP1 JUMPDEST DUP2 SLOAD DUP2 MSTORE SWAP1 PUSH1 0x1 ADD SWAP1 PUSH1 0x20 ADD DUP1 DUP4 GT PUSH2 0x710 JUMPI DUP3 SWAP1 SUB PUSH1 0x1F AND DUP3 ADD SWAP2 JUMPDEST POP POP POP POP POP SWAP2 POP POP SWAP2 SWAP1 POP JUMP JUMPDEST PUSH1 0x0 PUSH20 0xFFFFFFFFFFFFFFFFFFFFFFFFFFFFFFFFFFFFFFFF AND DUP3 PUSH20 0xFFFFFFFFFFFFFFFFFFFFFFFFFFFFFFFFFFFFFFFF AND SUB PUSH2 0x7A9 JUMPI PUSH1 0x40 MLOAD PUSH32 0x8C379A000000000000000000000000000000000000000000000000000000000 DUP2 MSTORE PUSH1 0x4 ADD PUSH2 0x7A0 SWAP1 PUSH2 0x1F9A JUMP JUMPDEST PUSH1 0x40 MLOAD DUP1 SWAP2 SUB SWAP1 REVERT JUMPDEST PUSH1 0x0 DUP2 MLOAD GT PUSH2 0x7ED JUMPI PUSH1 0x40 MLOAD PUSH32 0x8C379A000000000000000000000000000000000000000000000000000000000 DUP2 MSTORE PUSH1 0x4 ADD PUSH2 0x7E4 SWAP1 PUSH2 0x2006 JUMP JUMPDEST PUSH1 0x40 MLOAD DUP1 SWAP2 SUB SWAP1 REVERT JUMPDEST PUSH1 0x40 MLOAD DUP1 PUSH1 0xC0 ADD PUSH1 0x40 MSTORE DUP1 CALLER PUSH20 0xFFFFFFFFFFFFFFFFFFFFFFFFFFFFFFFFFFFFFFFF AND DUP2 MSTORE PUSH1 0x20 ADD DUP4 PUSH20 0xFFFFFFFFFFFFFFFFFFFFFFFFFFFFFFFFFFFFFFFF AND DUP2 MSTORE PUSH1 0x20 ADD DUP3 DUP2 MSTORE PUSH1 0x20 ADD PUSH1 0x0 ISZERO ISZERO DUP2 MSTORE PUSH1 0x20 ADD TIMESTAMP DUP2 MSTORE PUSH1 0x20 ADD PUSH1 0x0 ISZERO ISZERO DUP2 MSTORE POP PUSH1 0x0 DUP1 PUSH1 0x1 SLOAD DUP2 MSTORE PUSH1 0x20 ADD SWAP1 DUP2 MSTORE PUSH1 0x20 ADD PUSH1 0x0 KECCAK256 PUSH1 0x0 DUP3 ADD MLOAD DUP2 PUSH1 0x0 ADD PUSH1 0x0 PUSH2 0x100 EXP DUP2 SLOAD DUP2 PUSH20 0xFFFFFFFFFFFFFFFFFFFFFFFFFFFFFFFFFFFFFFFF MUL NOT AND SWAP1 DUP4 PUSH20 0xFFFFFFFFFFFFFFFFFFFFFFFFFFFFFFFFFFFFFFFF AND MUL OR SWAP1 SSTORE POP PUSH1 0x20 DUP3 ADD MLOAD DUP2 PUSH1 0x1 ADD PUSH1 0x0 PUSH2 0x100 EXP DUP2 SLOAD DUP2 PUSH20 0xFFFFFFFFFFFFFFFFFFFFFFFFFFFFFFFFFFFFFFFF MUL NOT AND SWAP1 DUP4 PUSH20 0xFFFFFFFFFFFFFFFFFFFFFFFFFFFFFFFFFFFFFFFF AND MUL OR SWAP1 SSTORE POP PUSH1 0x40 DUP3 ADD MLOAD DUP2 PUSH1 0x2 ADD SWAP1 DUP2 PUSH2 0x903 SWAP2 SWAP1 PUSH2 0x21D2 JUMP JUMPDEST POP PUSH1 0x60 DUP3 ADD MLOAD DUP2 PUSH1 0x3 ADD PUSH1 0x0 PUSH2 0x100 EXP DUP2 SLOAD DUP2 PUSH1 0xFF MUL NOT AND SWAP1 DUP4 ISZERO ISZERO MUL OR SWAP1 SSTORE POP PUSH1 0x80 DUP3 ADD MLOAD DUP2 PUSH1 0x4 ADD SSTORE PUSH1 0xA0 DUP3 ADD MLOAD DUP2 PUSH1 0x5 ADD PUSH1 0x0 PUSH2 0x100 EXP DUP2 SLOAD DUP2 PUSH1 0xFF MUL NOT AND SWAP1 DUP4 ISZERO ISZERO MUL OR SWAP1 SSTORE POP SWAP1 POP POP DUP2 PUSH20 0xFFFFFFFFFFFFFFFFFFFFFFFFFFFFFFFFFFFFFFFF AND CALLER PUSH20 0xFFFFFFFFFFFFFFFFFFFFFFFFFFFFFFFFFFFFFFFF AND PUSH1 0x1 SLOAD PUSH32 0x6533C0D8A738079A5064424A83BD885C2DFB54138F56A58E1CB171C40FA480E0 TIMESTAMP PUSH1 0x40 MLOAD PUSH2 0x9B1 SWAP2 SWAP1 PUSH2 0x1780 JUMP JUMPDEST PUSH1 0x40 MLOAD DUP1 SWAP2 SUB SWAP1 LOG4 PUSH1 0x1 PUSH1 0x0 DUP2 SLOAD DUP1 SWAP3 SWAP2 SWAP1 PUSH2 0x9CC SWAP1 PUSH2 0x22D3 JUMP JUMPDEST SWAP2 SWAP1 POP SSTORE POP POP POP JUMP JUMPDEST PUSH32 0x0 DUP2 JUMP JUMPDEST PUSH2 0xA01 PUSH2 0x1506 JUMP JUMPDEST PUSH1 0x0 DUP1 DUP4 DUP2 MSTORE PUSH1 0x20 ADD SWAP1 DUP2 MSTORE PUSH1 0x20 ADD PUSH1 0x0 KECCAK256 PUSH1 0x40 MLOAD DUP1 PUSH1 0xC0 ADD PUSH1 0x40 MSTORE SWAP1 DUP2 PUSH1 0x0 DUP3 ADD PUSH1 0x0 SWAP1 SLOAD SWAP1 PUSH2 0x100 EXP SWAP1 DIV PUSH20 0xFFFFFFFFFFFFFFFFFFFFFFFFFFFFFFFFFFFFFFFF AND PUSH20 0xFFFFFFFFFFFFFFFFFFFFFFFFFFFFFFFFFFFFFFFF AND PUSH20 0xFFFFFFFFFFFFFFFFFFFFFFFFFFFFFFFFFFFFFFFF AND DUP2 MSTORE PUSH1 0x20 ADD PUSH1 0x1 DUP3 ADD PUSH1 0x0 SWAP1 SLOAD SWAP1 PUSH2 0x100 EXP SWAP1 DIV PUSH20 0xFFFFFFFFFFFFFFFFFFFFFFFFFFFFFFFFFFFFFFFF AND PUSH20 0xFFFFFFFFFFFFFFFFFFFFFFFFFFFFFFFFFFFFFFFF AND PUSH20 0xFFFFFFFFFFFFFFFFFFFFFFFFFFFFFFFFFFFFFFFF AND DUP2 MSTORE PUSH1 0x20 ADD PUSH1 0x2 DUP3 ADD DUP1 SLOAD PUSH2 0xADA SWAP1 PUSH2 0x1F1D JUMP JUMPDEST DUP1 PUSH1 0x1F ADD PUSH1 0x20 DUP1 SWAP2 DIV MUL PUSH1 0x20 ADD PUSH1 0x40 MLOAD SWAP1 DUP2 ADD PUSH1 0x40 MSTORE DUP1 SWAP3 SWAP2 SWAP1 DUP2 DUP2 MSTORE PUSH1 0x20 ADD DUP3 DUP1 SLOAD PUSH2 0xB06 SWAP1 PUSH2 0x1F1D JUMP JUMPDEST DUP1 ISZERO PUSH2 0xB53 JUMPI DUP1 PUSH1 0x1F LT PUSH2 0xB28 JUMPI PUSH2 0x100 DUP1 DUP4 SLOAD DIV MUL DUP4 MSTORE SWAP2 PUSH1 0x20 ADD SWAP2 PUSH2 0xB53 JUMP JUMPDEST DUP3 ADD SWAP2 SWAP1 PUSH1 0x0 MSTORE PUSH1 0x20 PUSH1 0x0 KECCAK256 SWAP1 JUMPDEST DUP2 SLOAD DUP2 MSTORE SWAP1 PUSH1 0x1 ADD SWAP1 PUSH1 0x20 ADD DUP1 DUP4 GT PUSH2 0xB36 JUMPI DUP3 SWAP1 SUB PUSH1 0x1F AND DUP3 ADD SWAP2 JUMPDEST POP POP POP POP POP DUP2 MSTORE PUSH1 0x20 ADD PUSH1 0x3 DUP3 ADD PUSH1 0x0 SWAP1 SLOAD SWAP1 PUSH2 0x100 EXP SWAP1 DIV PUSH1 0xFF AND ISZERO ISZERO ISZERO ISZERO DUP2 MSTORE PUSH1 0x20 ADD PUSH1 0x4 DUP3 ADD SLOAD DUP2 MSTORE PUSH1 0x20 ADD PUSH1 0x5 DUP3 ADD PUSH1 0x0 SWAP1 SLOAD SWAP1 PUSH2 0x100 EXP SWAP1 DIV PUSH1 0xFF AND ISZERO ISZERO ISZERO ISZERO DUP2 MSTORE POP POP SWAP1 POP SWAP2 SWAP1 POP JUMP JUMPDEST PUSH32 0x0 PUSH20 0xFFFFFFFFFFFFFFFFFFFFFFFFFFFFFFFFFFFFFFFF AND CALLER PUSH20 0xFFFFFFFFFFFFFFFFFFFFFFFFFFFFFFFFFFFFFFFF AND EQ PUSH2 0xC31 JUMPI PUSH1 0x40 MLOAD PUSH32 0x8C379A000000000000000000000000000000000000000000000000000000000 DUP2 MSTORE PUSH1 0x4 ADD PUSH2 0xC28 SWAP1 PUSH2 0x2367 JUMP JUMPDEST PUSH1 0x40 MLOAD DUP1 SWAP2 SUB SWAP1 REVERT JUMPDEST PUSH1 0x0 DUP2 GT PUSH2 0xC74 JUMPI PUSH1 0x40 MLOAD PUSH32 0x8C379A000000000000000000000000000000000000000000000000000000000 DUP2 MSTORE PUSH1 0x4 ADD PUSH2 0xC6B SWAP1 PUSH2 0x23D3 JUMP JUMPDEST PUSH1 0x40 MLOAD DUP1 SWAP2 SUB SWAP1 REVERT JUMPDEST DUP1 PUSH1 0x2 PUSH1 0x0 DUP5 DUP2 MSTORE PUSH1 0x20 ADD SWAP1 DUP2 MSTORE PUSH1 0x20 ADD PUSH1 0x0 KECCAK256 PUSH1 0x2 ADD DUP2 SWAP1 SSTORE POP POP POP JUMP JUMPDEST PUSH1 0x0 DUP1 PUSH1 0x0 DUP4 DUP2 MSTORE PUSH1 0x20 ADD SWAP1 DUP2 MSTORE PUSH1 0x20 ADD PUSH1 0x0 KECCAK256 SWAP1 POP DUP1 PUSH1 0x1 ADD PUSH1 0x0 SWAP1 SLOAD SWAP1 PUSH2 0x100 EXP SWAP1 DIV PUSH20 0xFFFFFFFFFFFFFFFFFFFFFFFFFFFFFFFFFFFFFFFF AND PUSH20 0xFFFFFFFFFFFFFFFFFFFFFFFFFFFFFFFFFFFFFFFF AND CALLER PUSH20 0xFFFFFFFFFFFFFFFFFFFFFFFFFFFFFFFFFFFFFFFF AND EQ PUSH2 0xD3B JUMPI PUSH1 0x40 MLOAD PUSH32 0x8C379A000000000000000000000000000000000000000000000000000000000 DUP2 MSTORE PUSH1 0x4 ADD PUSH2 0xD32 SWAP1 PUSH2 0x1DF6 JUMP JUMPDEST PUSH1 0x40 MLOAD DUP1 SWAP2 SUB SWAP1 REVERT JUMPDEST DUP1 PUSH1 0x5 ADD PUSH1 0x0 SWAP1 SLOAD SWAP1 PUSH2 0x100 EXP SWAP1 DIV PUSH1 0xFF AND ISZERO PUSH2 0xD8D JUMPI PUSH1 0x40 MLOAD PUSH32 0x8C379A000000000000000000000000000000000000000000000000000000000 DUP2 MSTORE PUSH1 0x4 ADD PUSH2 0xD84 SWAP1 PUSH2 0x243F JUMP JUMPDEST PUSH1 0x40 MLOAD DUP1 SWAP2 SUB SWAP1 REVERT JUMPDEST PUSH1 0x1 DUP2 PUSH1 0x5 ADD PUSH1 0x0 PUSH2 0x100 EXP DUP2 SLOAD DUP2 PUSH1 0xFF MUL NOT AND SWAP1 DUP4 ISZERO ISZERO MUL OR SWAP1 SSTORE POP PUSH1 0x40 MLOAD DUP1 PUSH1 0x20 ADD PUSH1 0x40 MSTORE DUP1 PUSH1 0x0 DUP2 MSTORE POP DUP2 PUSH1 0x2 ADD SWAP1 DUP2 PUSH2 0xDCA SWAP2 SWAP1 PUSH2 0x21D2 JUMP JUMPDEST POP CALLER PUSH20 0xFFFFFFFFFFFFFFFFFFFFFFFFFFFFFFFFFFFFFFFF AND DUP3 PUSH32 0x728F066F4D1D424AB5F5A591AA40AA650FE607112CD483E67CF2816F8A9631D8 PUSH1 0x40 MLOAD PUSH1 0x40 MLOAD DUP1 SWAP2 SUB SWAP1 LOG3 POP POP JUMP JUMPDEST PUSH32 0x0 PUSH20 0xFFFFFFFFFFFFFFFFFFFFFFFFFFFFFFFFFFFFFFFF AND CALLER PUSH20 0xFFFFFFFFFFFFFFFFFFFFFFFFFFFFFFFFFFFFFFFF AND EQ PUSH2 0xEA1 JUMPI PUSH1 0x40 MLOAD PUSH32 0x8C379A000000000000000000000000000000000000000000000000000000000 DUP2 MSTORE PUSH1 0x4 ADD PUSH2 0xE98 SWAP1 PUSH2 0x2367 JUMP JUMPDEST PUSH1 0x40 MLOAD DUP1 SWAP2 SUB SWAP1 REVERT JUMPDEST DUP1 PUSH1 0x2 PUSH1 0x0 DUP5 DUP2 MSTORE PUSH1 0x20 ADD SWAP1 DUP2 MSTORE PUSH1 0x20 ADD PUSH1 0x0 KECCAK256 PUSH1 0x3 ADD PUSH1 0x0 PUSH2 0x100 EXP DUP2 SLOAD DUP2 PUSH1 0xFF MUL NOT AND SWAP1 DUP4 ISZERO ISZERO MUL OR SWAP1 SSTORE POP POP POP JUMP JUMPDEST PUSH1 0x0 PUSH1 0x2 PUSH1 0x0 DUP5 DUP2 MSTORE PUSH1 0x20 ADD SWAP1 DUP2 MSTORE PUSH1 0x20 ADD PUSH1 0x0 KECCAK256 SWAP1 POP DUP1 PUSH1 0x3 ADD PUSH1 0x0 SWAP1 SLOAD SWAP1 PUSH2 0x100 EXP SWAP1 DIV PUSH1 0xFF AND PUSH2 0xF3B JUMPI PUSH1 0x40 MLOAD PUSH32 0x8C379A000000000000000000000000000000000000000000000000000000000 DUP2 MSTORE PUSH1 0x4 ADD PUSH2 0xF32 SWAP1 PUSH2 0x24AB JUMP JUMPDEST PUSH1 0x40 MLOAD DUP1 SWAP2 SUB SWAP1 REVERT JUMPDEST DUP1 PUSH1 0x2 ADD SLOAD CALLVALUE LT ISZERO PUSH2 0xF82 JUMPI PUSH1 0x40 MLOAD PUSH32 0x8C379A000000000000000000000000000000000000000000000000000000000 DUP2 MSTORE PUSH1 0x4 ADD PUSH2 0xF79 SWAP1 PUSH2 0x2517 JUMP JUMPDEST PUSH1 0x40 MLOAD DUP1 SWAP2 SUB SWAP1 REVERT JUMPDEST PUSH1 0x0 PUSH20 0xFFFFFFFFFFFFFFFFFFFFFFFFFFFFFFFFFFFFFFFF AND DUP3 PUSH20 0xFFFFFFFFFFFFFFFFFFFFFFFFFFFFFFFFFFFFFFFF AND SUB PUSH2 0xFF1 JUMPI PUSH1 0x40 MLOAD PUSH32 0x8C379A000000000000000000000000000000000000000000000000000000000 DUP2 MSTORE PUSH1 0x4 ADD PUSH2 0xFE8 SWAP1 PUSH2 0x2583 JUMP JUMPDEST PUSH1 0x40 MLOAD DUP1 SWAP2 SUB SWAP1 REVERT JUMPDEST PUSH1 0x0 DUP2 PUSH1 0x2 ADD SLOAD SWAP1 POP PUSH1 0x0 PUSH32 0x0 PUSH20 0xFFFFFFFFFFFFFFFFFFFFFFFFFFFFFFFFFFFFFFFF AND DUP3 PUSH1 0x40 MLOAD PUSH2 0x1040 SWAP1 PUSH2 0x25D4 JUMP JUMPDEST PUSH1 0x0 PUSH1 0x40 MLOAD DUP1 DUP4 SUB DUP2 DUP6 DUP8 GAS CALL SWAP3 POP POP POP RETURNDATASIZE DUP1 PUSH1 0x0 DUP2 EQ PUSH2 0x107D JUMPI PUSH1 0x40 MLOAD SWAP2 POP PUSH1 0x1F NOT PUSH1 0x3F RETURNDATASIZE ADD AND DUP3 ADD PUSH1 0x40 MSTORE RETURNDATASIZE DUP3 MSTORE RETURNDATASIZE PUSH1 0x0 PUSH1 0x20 DUP5 ADD RETURNDATACOPY PUSH2 0x1082 JUMP JUMPDEST PUSH1 0x60 SWAP2 POP JUMPDEST POP POP SWAP1 POP DUP1 PUSH2 0x10C6 JUMPI PUSH1 0x40 MLOAD PUSH32 0x8C379A000000000000000000000000000000000000000000000000000000000 DUP2 MSTORE PUSH1 0x4 ADD PUSH2 0x10BD SWAP1 PUSH2 0x2635 JUMP JUMPDEST PUSH1 0x40 MLOAD DUP1 SWAP2 SUB SWAP1 REVERT JUMPDEST DUP2 CALLVALUE GT ISZERO PUSH2 0x1187 JUMPI PUSH1 0x0 CALLER PUSH20 0xFFFFFFFFFFFFFFFFFFFFFFFFFFFFFFFFFFFFFFFF AND DUP4 CALLVALUE PUSH2 0x10F3 SWAP2 SWAP1 PUSH2 0x2655 JUMP JUMPDEST PUSH1 0x40 MLOAD PUSH2 0x10FF SWAP1 PUSH2 0x25D4 JUMP JUMPDEST PUSH1 0x0 PUSH1 0x40 MLOAD DUP1 DUP4 SUB DUP2 DUP6 DUP8 GAS CALL SWAP3 POP POP POP RETURNDATASIZE DUP1 PUSH1 0x0 DUP2 EQ PUSH2 0x113C JUMPI PUSH1 0x40 MLOAD SWAP2 POP PUSH1 0x1F NOT PUSH1 0x3F RETURNDATASIZE ADD AND DUP3 ADD PUSH1 0x40 MSTORE RETURNDATASIZE DUP3 MSTORE RETURNDATASIZE PUSH1 0x0 PUSH1 0x20 DUP5 ADD RETURNDATACOPY PUSH2 0x1141 JUMP JUMPDEST PUSH1 0x60 SWAP2 POP JUMPDEST POP POP SWAP1 POP DUP1 PUSH2 0x1185 JUMPI PUSH1 0x40 MLOAD PUSH32 0x8C379A000000000000000000000000000000000000000000000000000000000 DUP2 MSTORE PUSH1 0x4 ADD PUSH2 0x117C SWAP1 PUSH2 0x26D5 JUMP JUMPDEST PUSH1 0x40 MLOAD DUP1 SWAP2 SUB SWAP1 REVERT JUMPDEST POP JUMPDEST PUSH1 0x4 PUSH1 0x0 DUP6 PUSH20 0xFFFFFFFFFFFFFFFFFFFFFFFFFFFFFFFFFFFFFFFF AND PUSH20 0xFFFFFFFFFFFFFFFFFFFFFFFFFFFFFFFFFFFFFFFF AND DUP2 MSTORE PUSH1 0x20 ADD SWAP1 DUP2 MSTORE PUSH1 0x20 ADD PUSH1 0x0 KECCAK256 PUSH1 0x40 MLOAD DUP1 PUSH1 0x40 ADD PUSH1 0x40 MSTORE DUP1 DUP8 DUP2 MSTORE PUSH1 0x20 ADD CALLER PUSH20 0xFFFFFFFFFFFFFFFFFFFFFFFFFFFFFFFFFFFFFFFF AND DUP2 MSTORE POP SWAP1 DUP1 PUSH1 0x1 DUP2 SLOAD ADD DUP1 DUP3 SSTORE DUP1 SWAP2 POP POP PUSH1 0x1 SWAP1 SUB SWAP1 PUSH1 0x0 MSTORE PUSH1 0x20 PUSH1 0x0 KECCAK256 SWAP1 PUSH1 0x2 MUL ADD PUSH1 0x0 SWAP1 SWAP2 SWAP1 SWAP2 SWAP1 SWAP2 POP PUSH1 0x0 DUP3 ADD MLOAD DUP2 PUSH1 0x0 ADD SSTORE PUSH1 0x20 DUP3 ADD MLOAD DUP2 PUSH1 0x1 ADD PUSH1 0x0 PUSH2 0x100 EXP DUP2 SLOAD DUP2 PUSH20 0xFFFFFFFFFFFFFFFFFFFFFFFFFFFFFFFFFFFFFFFF MUL NOT AND SWAP1 DUP4 PUSH20 0xFFFFFFFFFFFFFFFFFFFFFFFFFFFFFFFFFFFFFFFF AND MUL OR SWAP1 SSTORE POP POP POP DUP4 PUSH20 0xFFFFFFFFFFFFFFFFFFFFFFFFFFFFFFFFFFFFFFFF AND CALLER PUSH20 0xFFFFFFFFFFFFFFFFFFFFFFFFFFFFFFFFFFFFFFFF AND DUP7 PUSH32 0x1167E021C052AF0780D3F03F62FE8141B28E148B94F2035F56395A8485DE6C0F DUP7 PUSH1 0x1 ADD PUSH1 0x0 SWAP1 SLOAD SWAP1 PUSH2 0x100 EXP SWAP1 DIV PUSH1 0xFF AND DUP7 PUSH1 0x40 MLOAD PUSH2 0x12DE SWAP3 SWAP2 SWAP1 PUSH2 0x2704 JUMP JUMPDEST PUSH1 0x40 MLOAD DUP1 SWAP2 SUB SWAP1 LOG4 POP POP POP POP POP JUMP JUMPDEST PUSH32 0x0 PUSH20 0xFFFFFFFFFFFFFFFFFFFFFFFFFFFFFFFFFFFFFFFF AND CALLER PUSH20 0xFFFFFFFFFFFFFFFFFFFFFFFFFFFFFFFFFFFFFFFF AND EQ PUSH2 0x137B JUMPI PUSH1 0x40 MLOAD PUSH32 0x8C379A000000000000000000000000000000000000000000000000000000000 DUP2 MSTORE PUSH1 0x4 ADD PUSH2 0x1372 SWAP1 PUSH2 0x2367 JUMP JUMPDEST PUSH1 0x40 MLOAD DUP1 SWAP2 SUB SWAP1 REVERT JUMPDEST PUSH1 0x0 DUP2 GT PUSH2 0x13BE JUMPI PUSH1 0x40 MLOAD PUSH32 0x8C379A000000000000000000000000000000000000000000000000000000000 DUP2 MSTORE PUSH1 0x4 ADD PUSH2 0x13B5 SWAP1 PUSH2 0x23D3 JUMP JUMPDEST PUSH1 0x40 MLOAD DUP1 SWAP2 SUB SWAP1 REVERT JUMPDEST PUSH1 0x40 MLOAD DUP1 PUSH1 0x80 ADD PUSH1 0x40 MSTORE DUP1 PUSH1 0x3 SLOAD DUP2 MSTORE PUSH1 0x20 ADD DUP4 PUSH1 0x3 DUP2 GT ISZERO PUSH2 0x13E4 JUMPI PUSH2 0x13E3 PUSH2 0x166F JUMP JUMPDEST JUMPDEST DUP2 MSTORE PUSH1 0x20 ADD DUP3 DUP2 MSTORE PUSH1 0x20 ADD PUSH1 0x1 ISZERO ISZERO DUP2 MSTORE POP PUSH1 0x2 PUSH1 0x0 PUSH1 0x3 SLOAD DUP2 MSTORE PUSH1 0x20 ADD SWAP1 DUP2 MSTORE PUSH1 0x20 ADD PUSH1 0x0 KECCAK256 PUSH1 0x0 DUP3 ADD MLOAD DUP2 PUSH1 0x0 ADD SSTORE PUSH1 0x20 DUP3 ADD MLOAD DUP2 PUSH1 0x1 ADD PUSH1 0x0 PUSH2 0x100 EXP DUP2 SLOAD DUP2 PUSH1 0xFF MUL NOT AND SWAP1 DUP4 PUSH1 0x3 DUP2 GT ISZERO PUSH2 0x1440 JUMPI PUSH2 0x143F PUSH2 0x166F JUMP JUMPDEST JUMPDEST MUL OR SWAP1 SSTORE POP PUSH1 0x40 DUP3 ADD MLOAD DUP2 PUSH1 0x2 ADD SSTORE PUSH1 0x60 DUP3 ADD MLOAD DUP2 PUSH1 0x3 ADD PUSH1 0x0 PUSH2 0x100 EXP DUP2 SLOAD DUP2 PUSH1 0xFF MUL NOT AND SWAP1 DUP4 ISZERO ISZERO MUL OR SWAP1 SSTORE POP SWAP1 POP POP PUSH1 0x3 SLOAD PUSH32 0x95DC3CE0FC1E471FCF0121324C0C4A95E5E3B4D41DBA6B05E5B6D9F83771A46D DUP4 DUP4 PUSH1 0x40 MLOAD PUSH2 0x14A6 SWAP3 SWAP2 SWAP1 PUSH2 0x2704 JUMP JUMPDEST PUSH1 0x40 MLOAD DUP1 SWAP2 SUB SWAP1 LOG2 PUSH1 0x3 PUSH1 0x0 DUP2 SLOAD DUP1 SWAP3 SWAP2 SWAP1 PUSH2 0x14C1 SWAP1 PUSH2 0x22D3 JUMP JUMPDEST SWAP2 SWAP1 POP SSTORE POP POP POP JUMP JUMPDEST PUSH1 0x40 MLOAD DUP1 PUSH1 0x80 ADD PUSH1 0x40 MSTORE DUP1 PUSH1 0x0 DUP2 MSTORE PUSH1 0x20 ADD PUSH1 0x0 PUSH1 0x3 DUP2 GT ISZERO PUSH2 0x14F0 JUMPI PUSH2 0x14EF PUSH2 0x166F JUMP JUMPDEST JUMPDEST DUP2 MSTORE PUSH1 0x20 ADD PUSH1 0x0 DUP2 MSTORE PUSH1 0x20 ADD PUSH1 0x0 ISZERO ISZERO DUP2 MSTORE POP SWAP1 JUMP JUMPDEST PUSH1 0x40 MLOAD DUP1 PUSH1 0xC0 ADD PUSH1 0x40 MSTORE DUP1 PUSH1 0x0 PUSH20 0xFFFFFFFFFFFFFFFFFFFFFFFFFFFFFFFFFFFFFFFF AND DUP2 MSTORE PUSH1 0x20 ADD PUSH1 0x0 PUSH20 0xFFFFFFFFFFFFFFFFFFFFFFFFFFFFFFFFFFFFFFFF AND DUP2 MSTORE PUSH1 0x20 ADD PUSH1 0x60 DUP2 MSTORE PUSH1 0x20 ADD PUSH1 0x0 ISZERO ISZERO DUP2 MSTORE PUSH1 0x20 ADD PUSH1 0x0 DUP2 MSTORE PUSH1 0x20 ADD PUSH1 0x0 ISZERO ISZERO DUP2 MSTORE POP SWAP1 JUMP JUMPDEST PUSH1 0x0 DUP3 DUP3 MSTORE PUSH1 0x20 DUP3 ADD SWAP1 POP SWAP3 SWAP2 POP POP JUMP JUMPDEST PUSH32 0x446972656374207061796D656E7473206E6F7420616C6C6F7765640000000000 PUSH1 0x0 DUP3 ADD MSTORE POP JUMP JUMPDEST PUSH1 0x0 PUSH2 0x15B3 PUSH1 0x1B DUP4 PUSH2 0x156C JUMP JUMPDEST SWAP2 POP PUSH2 0x15BE DUP3 PUSH2 0x157D JUMP JUMPDEST PUSH1 0x20 DUP3 ADD SWAP1 POP SWAP2 SWAP1 POP JUMP JUMPDEST PUSH1 0x0 PUSH1 0x20 DUP3 ADD SWAP1 POP DUP2 DUP2 SUB PUSH1 0x0 DUP4 ADD MSTORE PUSH2 0x15E2 DUP2 PUSH2 0x15A6 JUMP JUMPDEST SWAP1 POP SWAP2 SWAP1 POP JUMP JUMPDEST PUSH1 0x0 PUSH1 0x40 MLOAD SWAP1 POP SWAP1 JUMP JUMPDEST PUSH1 0x0 DUP1 REVERT JUMPDEST PUSH1 0x0 DUP1 REVERT JUMPDEST PUSH1 0x0 DUP2 SWAP1 POP SWAP2 SWAP1 POP JUMP JUMPDEST PUSH2 0x1610 DUP2 PUSH2 0x15FD JUMP JUMPDEST DUP2 EQ PUSH2 0x161B JUMPI PUSH1 0x0 DUP1 REVERT JUMPDEST POP JUMP JUMPDEST PUSH1 0x0 DUP2 CALLDATALOAD SWAP1 POP PUSH2 0x162D DUP2 PUSH2 0x1607 JUMP JUMPDEST SWAP3 SWAP2 POP POP JUMP JUMPDEST PUSH1 0x0 PUSH1 0x20 DUP3 DUP5 SUB SLT ISZERO PUSH2 0x1649 JUMPI PUSH2 0x1648 PUSH2 0x15F3 JUMP JUMPDEST JUMPDEST PUSH1 0x0 PUSH2 0x1657 DUP5 DUP3 DUP6 ADD PUSH2 0x161E JUMP JUMPDEST SWAP2 POP POP SWAP3 SWAP2 POP POP JUMP JUMPDEST PUSH2 0x1669 DUP2 PUSH2 0x15FD JUMP JUMPDEST DUP3 MSTORE POP POP JUMP JUMPDEST PUSH32 0x4E487B7100000000000000000000000000000000000000000000000000000000 PUSH1 0x0 MSTORE PUSH1 0x21 PUSH1 0x4 MSTORE PUSH1 0x24 PUSH1 0x0 REVERT JUMPDEST PUSH1 0x4 DUP2 LT PUSH2 0x16AF JUMPI PUSH2 0x16AE PUSH2 0x166F JUMP JUMPDEST JUMPDEST POP JUMP JUMPDEST PUSH1 0x0 DUP2 SWAP1 POP PUSH2 0x16C0 DUP3 PUSH2 0x169E JUMP JUMPDEST SWAP2 SWAP1 POP JUMP JUMPDEST PUSH1 0x0 PUSH2 0x16D0 DUP3 PUSH2 0x16B2 JUMP JUMPDEST SWAP1 POP SWAP2 SWAP1 POP JUMP JUMPDEST PUSH2 0x16E0 DUP2 PUSH2 0x16C5 JUMP JUMPDEST DUP3 MSTORE POP POP JUMP JUMPDEST PUSH1 0x0 DUP2 ISZERO ISZERO SWAP1 POP SWAP2 SWAP1 POP JUMP JUMPDEST PUSH2 0x16FB DUP2 PUSH2 0x16E6 JUMP JUMPDEST DUP3 MSTORE POP POP JUMP JUMPDEST PUSH1 0x80 DUP3 ADD PUSH1 0x0 DUP3 ADD MLOAD PUSH2 0x1717 PUSH1 0x0 DUP6 ADD DUP3 PUSH2 0x1660 JUMP JUMPDEST POP PUSH1 0x20 DUP3 ADD MLOAD PUSH2 0x172A PUSH1 0x20 DUP6 ADD DUP3 PUSH2 0x16D7 JUMP JUMPDEST POP PUSH1 0x40 DUP3 ADD MLOAD PUSH2 0x173D PUSH1 0x40 DUP6 ADD DUP3 PUSH2 0x1660 JUMP JUMPDEST POP PUSH1 0x60 DUP3 ADD MLOAD PUSH2 0x1750 PUSH1 0x60 DUP6 ADD DUP3 PUSH2 0x16F2 JUMP JUMPDEST POP POP POP POP JUMP JUMPDEST PUSH1 0x0 PUSH1 0x80 DUP3 ADD SWAP1 POP PUSH2 0x176B PUSH1 0x0 DUP4 ADD DUP5 PUSH2 0x1701 JUMP JUMPDEST SWAP3 SWAP2 POP POP JUMP JUMPDEST PUSH2 0x177A DUP2 PUSH2 0x15FD JUMP JUMPDEST DUP3 MSTORE POP POP JUMP JUMPDEST PUSH1 0x0 PUSH1 0x20 DUP3 ADD SWAP1 POP PUSH2 0x1795 PUSH1 0x0 DUP4 ADD DUP5 PUSH2 0x1771 JUMP JUMPDEST SWAP3 SWAP2 POP POP JUMP JUMPDEST PUSH1 0x0 DUP2 MLOAD SWAP1 POP SWAP2 SWAP1 POP JUMP JUMPDEST PUSH1 0x0 DUP3 DUP3 MSTORE PUSH1 0x20 DUP3 ADD SWAP1 POP SWAP3 SWAP2 POP POP JUMP JUMPDEST PUSH1 0x0 DUP2 SWAP1 POP PUSH1 0x20 DUP3 ADD SWAP1 POP SWAP2 SWAP1 POP JUMP JUMPDEST PUSH1 0x0 PUSH20 0xFFFFFFFFFFFFFFFFFFFFFFFFFFFFFFFFFFFFFFFF DUP3 AND SWAP1 POP SWAP2 SWAP1 POP JUMP JUMPDEST PUSH1 0x0 PUSH2 0x17F2 DUP3 PUSH2 0x17C7 JUMP JUMPDEST SWAP1 POP SWAP2 SWAP1 POP JUMP JUMPDEST PUSH2 0x1802 DUP2 PUSH2 0x17E7 JUMP JUMPDEST DUP3 MSTORE POP POP JUMP JUMPDEST PUSH1 0x40 DUP3 ADD PUSH1 0x0 DUP3 ADD MLOAD PUSH2 0x181E PUSH1 0x0 DUP6 ADD DUP3 PUSH2 0x1660 JUMP JUMPDEST POP PUSH1 0x20 DUP3 ADD MLOAD PUSH2 0x1831 PUSH1 0x20 DUP6 ADD DUP3 PUSH2 0x17F9 JUMP JUMPDEST POP POP POP POP JUMP JUMPDEST PUSH1 0x0 PUSH2 0x1843 DUP4 DUP4 PUSH2 0x1808 JUMP JUMPDEST PUSH1 0x40 DUP4 ADD SWAP1 POP SWAP3 SWAP2 POP POP JUMP JUMPDEST PUSH1 0x0 PUSH1 0x20 DUP3 ADD SWAP1 POP SWAP2 SWAP1 POP JUMP JUMPDEST PUSH1 0x0 PUSH2 0x1867 DUP3 PUSH2 0x179B JUMP JUMPDEST PUSH2 0x1871 DUP2 DUP6 PUSH2 0x17A6 JUMP JUMPDEST SWAP4 POP PUSH2 0x187C DUP4 PUSH2 0x17B7 JUMP JUMPDEST DUP1 PUSH1 0x0 JUMPDEST DUP4 DUP2 LT ISZERO PUSH2 0x18AD JUMPI DUP2 MLOAD PUSH2 0x1894 DUP9 DUP3 PUSH2 0x1837 JUMP JUMPDEST SWAP8 POP PUSH2 0x189F DUP4 PUSH2 0x184F JUMP JUMPDEST SWAP3 POP POP PUSH1 0x1 DUP2 ADD SWAP1 POP PUSH2 0x1880 JUMP JUMPDEST POP DUP6 SWAP4 POP POP POP POP SWAP3 SWAP2 POP POP JUMP JUMPDEST PUSH1 0x0 PUSH1 0x20 DUP3 ADD SWAP1 POP DUP2 DUP2 SUB PUSH1 0x0 DUP4 ADD MSTORE PUSH2 0x18D4 DUP2 DUP5 PUSH2 0x185C JUMP JUMPDEST SWAP1 POP SWAP3 SWAP2 POP POP JUMP JUMPDEST PUSH1 0x0 DUP2 MLOAD SWAP1 POP SWAP2 SWAP1 POP JUMP JUMPDEST PUSH1 0x0 JUMPDEST DUP4 DUP2 LT ISZERO PUSH2 0x1905 JUMPI DUP1 DUP3 ADD MLOAD DUP2 DUP5 ADD MSTORE PUSH1 0x20 DUP2 ADD SWAP1 POP PUSH2 0x18EA JUMP JUMPDEST PUSH1 0x0 DUP5 DUP5 ADD MSTORE POP POP POP POP JUMP JUMPDEST PUSH1 0x0 PUSH1 0x1F NOT PUSH1 0x1F DUP4 ADD AND SWAP1 POP SWAP2 SWAP1 POP JUMP JUMPDEST PUSH1 0x0 PUSH2 0x192D DUP3 PUSH2 0x18DC JUMP JUMPDEST PUSH2 0x1937 DUP2 DUP6 PUSH2 0x156C JUMP JUMPDEST SWAP4 POP PUSH2 0x1947 DUP2 DUP6 PUSH1 0x20 DUP7 ADD PUSH2 0x18E7 JUMP JUMPDEST PUSH2 0x1950 DUP2 PUSH2 0x1911 JUMP JUMPDEST DUP5 ADD SWAP2 POP POP SWAP3 SWAP2 POP POP JUMP JUMPDEST PUSH1 0x0 PUSH1 0x20 DUP3 ADD SWAP1 POP DUP2 DUP2 SUB PUSH1 0x0 DUP4 ADD MSTORE PUSH2 0x1975 DUP2 DUP5 PUSH2 0x1922 JUMP JUMPDEST SWAP1 POP SWAP3 SWAP2 POP POP JUMP JUMPDEST PUSH2 0x1986 DUP2 PUSH2 0x17E7 JUMP JUMPDEST DUP2 EQ PUSH2 0x1991 JUMPI PUSH1 0x0 DUP1 REVERT JUMPDEST POP JUMP JUMPDEST PUSH1 0x0 DUP2 CALLDATALOAD SWAP1 POP PUSH2 0x19A3 DUP2 PUSH2 0x197D JUMP JUMPDEST SWAP3 SWAP2 POP POP JUMP JUMPDEST PUSH1 0x0 DUP1 REVERT JUMPDEST PUSH1 0x0 DUP1 REVERT JUMPDEST PUSH32 0x4E487B7100000000000000000000000000000000000000000000000000000000 PUSH1 0x0 MSTORE PUSH1 0x41 PUSH1 0x4 MSTORE PUSH1 0x24 PUSH1 0x0 REVERT JUMPDEST PUSH2 0x19EB DUP3 PUSH2 0x1911 JUMP JUMPDEST DUP2 ADD DUP2 DUP2 LT PUSH8 0xFFFFFFFFFFFFFFFF DUP3 GT OR ISZERO PUSH2 0x1A0A JUMPI PUSH2 0x1A09 PUSH2 0x19B3 JUMP JUMPDEST JUMPDEST DUP1 PUSH1 0x40 MSTORE POP POP POP JUMP JUMPDEST PUSH1 0x0 PUSH2 0x1A1D PUSH2 0x15E9 JUMP JUMPDEST SWAP1 POP PUSH2 0x1A29 DUP3 DUP3 PUSH2 0x19E2 JUMP JUMPDEST SWAP2 SWAP1 POP JUMP JUMPDEST PUSH1 0x0 PUSH8 0xFFFFFFFFFFFFFFFF DUP3 GT ISZERO PUSH2 0x1A49 JUMPI PUSH2 0x1A48 PUSH2 0x19B3 JUMP JUMPDEST JUMPDEST PUSH2 0x1A52 DUP3 PUSH2 0x1911 JUMP JUMPDEST SWAP1 POP PUSH1 0x20 DUP2 ADD SWAP1 POP SWAP2 SWAP1 POP JUMP JUMPDEST DUP3 DUP2 DUP4 CALLDATACOPY PUSH1 0x0 DUP4 DUP4 ADD MSTORE POP POP POP JUMP JUMPDEST PUSH1 0x0 PUSH2 0x1A81 PUSH2 0x1A7C DUP5 PUSH2 0x1A2E JUMP JUMPDEST PUSH2 0x1A13 JUMP JUMPDEST SWAP1 POP DUP3 DUP2 MSTORE PUSH1 0x20 DUP2 ADD DUP5 DUP5 DUP5 ADD GT ISZERO PUSH2 0x1A9D JUMPI PUSH2 0x1A9C PUSH2 0x19AE JUMP JUMPDEST JUMPDEST PUSH2 0x1AA8 DUP5 DUP3 DUP6 PUSH2 0x1A5F JUMP JUMPDEST POP SWAP4 SWAP3 POP POP POP JUMP JUMPDEST PUSH1 0x0 DUP3 PUSH1 0x1F DUP4 ADD SLT PUSH2 0x1AC5 JUMPI PUSH2 0x1AC4 PUSH2 0x19A9 JUMP JUMPDEST JUMPDEST DUP2 CALLDATALOAD PUSH2 0x1AD5 DUP5 DUP3 PUSH1 0x20 DUP7 ADD PUSH2 0x1A6E JUMP JUMPDEST SWAP2 POP POP SWAP3 SWAP2 POP POP JUMP JUMPDEST PUSH1 0x0 DUP1 PUSH1 0x40 DUP4 DUP6 SUB SLT ISZERO PUSH2 0x1AF5 JUMPI PUSH2 0x1AF4 PUSH2 0x15F3 JUMP JUMPDEST JUMPDEST PUSH1 0x0 PUSH2 0x1B03 DUP6 DUP3 DUP7 ADD PUSH2 0x1994 JUMP JUMPDEST SWAP3 POP POP PUSH1 0x20 DUP4 ADD CALLDATALOAD PUSH8 0xFFFFFFFFFFFFFFFF DUP2 GT ISZERO PUSH2 0x1B24 JUMPI PUSH2 0x1B23 PUSH2 0x15F8 JUMP JUMPDEST JUMPDEST PUSH2 0x1B30 DUP6 DUP3 DUP7 ADD PUSH2 0x1AB0 JUMP JUMPDEST SWAP2 POP POP SWAP3 POP SWAP3 SWAP1 POP JUMP JUMPDEST PUSH2 0x1B43 DUP2 PUSH2 0x17E7 JUMP JUMPDEST DUP3 MSTORE POP POP JUMP JUMPDEST PUSH1 0x0 PUSH1 0x20 DUP3 ADD SWAP1 POP PUSH2 0x1B5E PUSH1 0x0 DUP4 ADD DUP5 PUSH2 0x1B3A JUMP JUMPDEST SWAP3 SWAP2 POP POP JUMP JUMPDEST PUSH1 0x0 DUP3 DUP3 MSTORE PUSH1 0x20 DUP3 ADD SWAP1 POP SWAP3 SWAP2 POP POP JUMP JUMPDEST PUSH1 0x0 PUSH2 0x1B80 DUP3 PUSH2 0x18DC JUMP JUMPDEST PUSH2 0x1B8A DUP2 DUP6 PUSH2 0x1B64 JUMP JUMPDEST SWAP4 POP PUSH2 0x1B9A DUP2 DUP6 PUSH1 0x20 DUP7 ADD PUSH2 0x18E7 JUMP JUMPDEST PUSH2 0x1BA3 DUP2 PUSH2 0x1911 JUMP JUMPDEST DUP5 ADD SWAP2 POP POP SWAP3 SWAP2 POP POP JUMP JUMPDEST PUSH1 0x0 PUSH1 0xC0 DUP4 ADD PUSH1 0x0 DUP4 ADD MLOAD PUSH2 0x1BC6 PUSH1 0x0 DUP7 ADD DUP3 PUSH2 0x17F9 JUMP JUMPDEST POP PUSH1 0x20 DUP4 ADD MLOAD PUSH2 0x1BD9 PUSH1 0x20 DUP7 ADD DUP3 PUSH2 0x17F9 JUMP JUMPDEST POP PUSH1 0x40 DUP4 ADD MLOAD DUP5 DUP3 SUB PUSH1 0x40 DUP7 ADD MSTORE PUSH2 0x1BF1 DUP3 DUP3 PUSH2 0x1B75 JUMP JUMPDEST SWAP2 POP POP PUSH1 0x60 DUP4 ADD MLOAD PUSH2 0x1C06 PUSH1 0x60 DUP7 ADD DUP3 PUSH2 0x16F2 JUMP JUMPDEST POP PUSH1 0x80 DUP4 ADD MLOAD PUSH2 0x1C19 PUSH1 0x80 DUP7 ADD DUP3 PUSH2 0x1660 JUMP JUMPDEST POP PUSH1 0xA0 DUP4 ADD MLOAD PUSH2 0x1C2C PUSH1 0xA0 DUP7 ADD DUP3 PUSH2 0x16F2 JUMP JUMPDEST POP DUP1 SWAP2 POP POP SWAP3 SWAP2 POP POP JUMP JUMPDEST PUSH1 0x0 PUSH1 0x20 DUP3 ADD SWAP1 POP DUP2 DUP2 SUB PUSH1 0x0 DUP4 ADD MSTORE PUSH2 0x1C51 DUP2 DUP5 PUSH2 0x1BAE JUMP JUMPDEST SWAP1 POP SWAP3 SWAP2 POP POP JUMP JUMPDEST PUSH1 0x0 DUP1 PUSH1 0x40 DUP4 DUP6 SUB SLT ISZERO PUSH2 0x1C70 JUMPI PUSH2 0x1C6F PUSH2 0x15F3 JUMP JUMPDEST JUMPDEST PUSH1 0x0 PUSH2 0x1C7E DUP6 DUP3 DUP7 ADD PUSH2 0x161E JUMP JUMPDEST SWAP3 POP POP PUSH1 0x20 PUSH2 0x1C8F DUP6 DUP3 DUP7 ADD PUSH2 0x161E JUMP JUMPDEST SWAP2 POP POP SWAP3 POP SWAP3 SWAP1 POP JUMP JUMPDEST PUSH2 0x1CA2 DUP2 PUSH2 0x16E6 JUMP JUMPDEST DUP2 EQ PUSH2 0x1CAD JUMPI PUSH1 0x0 DUP1 REVERT JUMPDEST POP JUMP JUMPDEST PUSH1 0x0 DUP2 CALLDATALOAD SWAP1 POP PUSH2 0x1CBF DUP2 PUSH2 0x1C99 JUMP JUMPDEST SWAP3 SWAP2 POP POP JUMP JUMPDEST PUSH1 0x0 DUP1 PUSH1 0x40 DUP4 DUP6 SUB SLT ISZERO PUSH2 0x1CDC JUMPI PUSH2 0x1CDB PUSH2 0x15F3 JUMP JUMPDEST JUMPDEST PUSH1 0x0 PUSH2 0x1CEA DUP6 DUP3 DUP7 ADD PUSH2 0x161E JUMP JUMPDEST SWAP3 POP POP PUSH1 0x20 PUSH2 0x1CFB DUP6 DUP3 DUP7 ADD PUSH2 0x1CB0 JUMP JUMPDEST SWAP2 POP POP SWAP3 POP SWAP3 SWAP1 POP JUMP JUMPDEST PUSH1 0x0 DUP1 PUSH1 0x40 DUP4 DUP6 SUB SLT ISZERO PUSH2 0x1D1C JUMPI PUSH2 0x1D1B PUSH2 0x15F3 JUMP JUMPDEST JUMPDEST PUSH1 0x0 PUSH2 0x1D2A DUP6 DUP3 DUP7 ADD PUSH2 0x161E JUMP JUMPDEST SWAP3 POP POP PUSH1 0x20 PUSH2 0x1D3B DUP6 DUP3 DUP7 ADD PUSH2 0x1994 JUMP JUMPDEST SWAP2 POP POP SWAP3 POP SWAP3 SWAP1 POP JUMP JUMPDEST PUSH1 0x4 DUP2 LT PUSH2 0x1D52 JUMPI PUSH1 0x0 DUP1 REVERT JUMPDEST POP JUMP JUMPDEST PUSH1 0x0 DUP2 CALLDATALOAD SWAP1 POP PUSH2 0x1D64 DUP2 PUSH2 0x1D45 JUMP JUMPDEST SWAP3 SWAP2 POP POP JUMP JUMPDEST PUSH1 0x0 DUP1 PUSH1 0x40 DUP4 DUP6 SUB SLT ISZERO PUSH2 0x1D81 JUMPI PUSH2 0x1D80 PUSH2 0x15F3 JUMP JUMPDEST JUMPDEST PUSH1 0x0 PUSH2 0x1D8F DUP6 DUP3 DUP7 ADD PUSH2 0x1D55 JUMP JUMPDEST SWAP3 POP POP PUSH1 0x20 PUSH2 0x1DA0 DUP6 DUP3 DUP7 ADD PUSH2 0x161E JUMP JUMPDEST SWAP2 POP POP SWAP3 POP SWAP3 SWAP1 POP JUMP JUMPDEST PUSH32 0x4E6F7420617574686F72697A6564000000000000000000000000000000000000 PUSH1 0x0 DUP3 ADD MSTORE POP JUMP JUMPDEST PUSH1 0x0 PUSH2 0x1DE0 PUSH1 0xE DUP4 PUSH2 0x156C JUMP JUMPDEST SWAP2 POP PUSH2 0x1DEB DUP3 PUSH2 0x1DAA JUMP JUMPDEST PUSH1 0x20 DUP3 ADD SWAP1 POP SWAP2 SWAP1 POP JUMP JUMPDEST PUSH1 0x0 PUSH1 0x20 DUP3 ADD SWAP1 POP DUP2 DUP2 SUB PUSH1 0x0 DUP4 ADD MSTORE PUSH2 0x1E0F DUP2 PUSH2 0x1DD3 JUMP JUMPDEST SWAP1 POP SWAP2 SWAP1 POP JUMP JUMPDEST PUSH32 0x4E6F74652064656C657465640000000000000000000000000000000000000000 PUSH1 0x0 DUP3 ADD MSTORE POP JUMP JUMPDEST PUSH1 0x0 PUSH2 0x1E4C PUSH1 0xC DUP4 PUSH2 0x156C JUMP JUMPDEST SWAP2 POP PUSH2 0x1E57 DUP3 PUSH2 0x1E16 JUMP JUMPDEST PUSH1 0x20 DUP3 ADD SWAP1 POP SWAP2 SWAP1 POP JUMP JUMPDEST PUSH1 0x0 PUSH1 0x20 DUP3 ADD SWAP1 POP DUP2 DUP2 SUB PUSH1 0x0 DUP4 ADD MSTORE PUSH2 0x1E7B DUP2 PUSH2 0x1E3F JUMP JUMPDEST SWAP1 POP SWAP2 SWAP1 POP JUMP JUMPDEST PUSH32 0x4E6F746520616C72656164792072656164000000000000000000000000000000 PUSH1 0x0 DUP3 ADD MSTORE POP JUMP JUMPDEST PUSH1 0x0 PUSH2 0x1EB8 PUSH1 0x11 DUP4 PUSH2 0x156C JUMP JUMPDEST SWAP2 POP PUSH2 0x1EC3 DUP3 PUSH2 0x1E82 JUMP JUMPDEST PUSH1 0x20 DUP3 ADD SWAP1 POP SWAP2 SWAP1 POP JUMP JUMPDEST PUSH1 0x0 PUSH1 0x20 DUP3 ADD SWAP1 POP DUP2 DUP2 SUB PUSH1 0x0 DUP4 ADD MSTORE PUSH2 0x1EE7 DUP2 PUSH2 0x1EAB JUMP JUMPDEST SWAP1 POP SWAP2 SWAP1 POP JUMP JUMPDEST PUSH32 0x4E487B7100000000000000000000000000000000000000000000000000000000 PUSH1 0x0 MSTORE PUSH1 0x22 PUSH1 0x4 MSTORE PUSH1 0x24 PUSH1 0x0 REVERT JUMPDEST PUSH1 0x0 PUSH1 0x2 DUP3 DIV SWAP1 POP PUSH1 0x1 DUP3 AND DUP1 PUSH2 0x1F35 JUMPI PUSH1 0x7F DUP3 AND SWAP2 POP JUMPDEST PUSH1 0x20 DUP3 LT DUP2 SUB PUSH2 0x1F48 JUMPI PUSH2 0x1F47 PUSH2 0x1EEE JUMP JUMPDEST JUMPDEST POP SWAP2 SWAP1 POP JUMP JUMPDEST PUSH32 0x496E76616C696420726563696576657200000000000000000000000000000000 PUSH1 0x0 DUP3 ADD MSTORE POP JUMP JUMPDEST PUSH1 0x0 PUSH2 0x1F84 PUSH1 0x10 DUP4 PUSH2 0x156C JUMP JUMPDEST SWAP2 POP PUSH2 0x1F8F DUP3 PUSH2 0x1F4E JUMP JUMPDEST PUSH1 0x20 DUP3 ADD SWAP1 POP SWAP2 SWAP1 POP JUMP JUMPDEST PUSH1 0x0 PUSH1 0x20 DUP3 ADD SWAP1 POP DUP2 DUP2 SUB PUSH1 0x0 DUP4 ADD MSTORE PUSH2 0x1FB3 DUP2 PUSH2 0x1F77 JUMP JUMPDEST SWAP1 POP SWAP2 SWAP1 POP JUMP JUMPDEST PUSH32 0x456D70747920636F6E74656E7400000000000000000000000000000000000000 PUSH1 0x0 DUP3 ADD MSTORE POP JUMP JUMPDEST PUSH1 0x0 PUSH2 0x1FF0 PUSH1 0xD DUP4 PUSH2 0x156C JUMP JUMPDEST SWAP2 POP PUSH2 0x1FFB DUP3 PUSH2 0x1FBA JUMP JUMPDEST PUSH1 0x20 DUP3 ADD SWAP1 POP SWAP2 SWAP1 POP JUMP JUMPDEST PUSH1 0x0 PUSH1 0x20 DUP3 ADD SWAP1 POP DUP2 DUP2 SUB PUSH1 0x0 DUP4 ADD MSTORE PUSH2 0x201F DUP2 PUSH2 0x1FE3 JUMP JUMPDEST SWAP1 POP SWAP2 SWAP1 POP JUMP JUMPDEST PUSH1 0x0 DUP2 SWAP1 POP DUP2 PUSH1 0x0 MSTORE PUSH1 0x20 PUSH1 0x0 KECCAK256 SWAP1 POP SWAP2 SWAP1 POP JUMP JUMPDEST PUSH1 0x0 PUSH1 0x20 PUSH1 0x1F DUP4 ADD DIV SWAP1 POP SWAP2 SWAP1 POP JUMP JUMPDEST PUSH1 0x0 DUP3 DUP3 SHL SWAP1 POP SWAP3 SWAP2 POP POP JUMP JUMPDEST PUSH1 0x0 PUSH1 0x8 DUP4 MUL PUSH2 0x2088 PUSH32 0xFFFFFFFFFFFFFFFFFFFFFFFFFFFFFFFFFFFFFFFFFFFFFFFFFFFFFFFFFFFFFFFF DUP3 PUSH2 0x204B JUMP JUMPDEST PUSH2 0x2092 DUP7 DUP4 PUSH2 0x204B JUMP JUMPDEST SWAP6 POP DUP1 NOT DUP5 AND SWAP4 POP DUP1 DUP7 AND DUP5 OR SWAP3 POP POP POP SWAP4 SWAP3 POP POP POP JUMP JUMPDEST PUSH1 0x0 DUP2 SWAP1 POP SWAP2 SWAP1 POP JUMP JUMPDEST PUSH1 0x0 PUSH2 0x20CF PUSH2 0x20CA PUSH2 0x20C5 DUP5 PUSH2 0x15FD JUMP JUMPDEST PUSH2 0x20AA JUMP JUMPDEST PUSH2 0x15FD JUMP JUMPDEST SWAP1 POP SWAP2 SWAP1 POP JUMP JUMPDEST PUSH1 0x0 DUP2 SWAP1 POP SWAP2 SWAP1 POP JUMP JUMPDEST PUSH2 0x20E9 DUP4 PUSH2 0x20B4 JUMP JUMPDEST PUSH2 0x20FD PUSH2 0x20F5 DUP3 PUSH2 0x20D6 JUMP JUMPDEST DUP5 DUP5 SLOAD PUSH2 0x2058 JUMP JUMPDEST DUP3 SSTORE POP POP POP POP JUMP JUMPDEST PUSH1 0x0 SWAP1 JUMP JUMPDEST PUSH2 0x2112 PUSH2 0x2105 JUMP JUMPDEST PUSH2 0x211D DUP2 DUP5 DUP5 PUSH2 0x20E0 JUMP JUMPDEST POP POP POP JUMP JUMPDEST JUMPDEST DUP2 DUP2 LT ISZERO PUSH2 0x2141 JUMPI PUSH2 0x2136 PUSH1 0x0 DUP3 PUSH2 0x210A JUMP JUMPDEST PUSH1 0x1 DUP2 ADD SWAP1 POP PUSH2 0x2123 JUMP JUMPDEST POP POP JUMP JUMPDEST PUSH1 0x1F DUP3 GT ISZERO PUSH2 0x2186 JUMPI PUSH2 0x2157 DUP2 PUSH2 0x2026 JUMP JUMPDEST PUSH2 0x2160 DUP5 PUSH2 0x203B JUMP JUMPDEST DUP2 ADD PUSH1 0x20 DUP6 LT ISZERO PUSH2 0x216F JUMPI DUP2 SWAP1 POP JUMPDEST PUSH2 0x2183 PUSH2 0x217B DUP6 PUSH2 0x203B JUMP JUMPDEST DUP4 ADD DUP3 PUSH2 0x2122 JUMP JUMPDEST POP POP JUMPDEST POP POP POP JUMP JUMPDEST PUSH1 0x0 DUP3 DUP3 SHR SWAP1 POP SWAP3 SWAP2 POP POP JUMP JUMPDEST PUSH1 0x0 PUSH2 0x21A9 PUSH1 0x0 NOT DUP5 PUSH1 0x8 MUL PUSH2 0x218B JUMP JUMPDEST NOT DUP1 DUP4 AND SWAP2 POP POP SWAP3 SWAP2 POP POP JUMP JUMPDEST PUSH1 0x0 PUSH2 0x21C2 DUP4 DUP4 PUSH2 0x2198 JUMP JUMPDEST SWAP2 POP DUP3 PUSH1 0x2 MUL DUP3 OR SWAP1 POP SWAP3 SWAP2 POP POP JUMP JUMPDEST PUSH2 0x21DB DUP3 PUSH2 0x18DC JUMP JUMPDEST PUSH8 0xFFFFFFFFFFFFFFFF DUP2 GT ISZERO PUSH2 0x21F4 JUMPI PUSH2 0x21F3 PUSH2 0x19B3 JUMP JUMPDEST JUMPDEST PUSH2 0x21FE DUP3 SLOAD PUSH2 0x1F1D JUMP JUMPDEST PUSH2 0x2209 DUP3 DUP3 DUP6 PUSH2 0x2145 JUMP JUMPDEST PUSH1 0x0 PUSH1 0x20 SWAP1 POP PUSH1 0x1F DUP4 GT PUSH1 0x1 DUP2 EQ PUSH2 0x223C JUMPI PUSH1 0x0 DUP5 ISZERO PUSH2 0x222A JUMPI DUP3 DUP8 ADD MLOAD SWAP1 POP JUMPDEST PUSH2 0x2234 DUP6 DUP3 PUSH2 0x21B6 JUMP JUMPDEST DUP7 SSTORE POP PUSH2 0x229C JUMP JUMPDEST PUSH1 0x1F NOT DUP5 AND PUSH2 0x224A DUP7 PUSH2 0x2026 JUMP JUMPDEST PUSH1 0x0 JUMPDEST DUP3 DUP2 LT ISZERO PUSH2 0x2272 JUMPI DUP5 DUP10 ADD MLOAD DUP3 SSTORE PUSH1 0x1 DUP3 ADD SWAP2 POP PUSH1 0x20 DUP6 ADD SWAP5 POP PUSH1 0x20 DUP2 ADD SWAP1 POP PUSH2 0x224D JUMP JUMPDEST DUP7 DUP4 LT ISZERO PUSH2 0x228F JUMPI DUP5 DUP10 ADD MLOAD PUSH2 0x228B PUSH1 0x1F DUP10 AND DUP3 PUSH2 0x2198 JUMP JUMPDEST DUP4 SSTORE POP JUMPDEST PUSH1 0x1 PUSH1 0x2 DUP9 MUL ADD DUP9 SSTORE POP POP POP JUMPDEST POP POP POP POP POP POP JUMP JUMPDEST PUSH32 0x4E487B7100000000000000000000000000000000000000000000000000000000 PUSH1 0x0 MSTORE PUSH1 0x11 PUSH1 0x4 MSTORE PUSH1 0x24 PUSH1 0x0 REVERT JUMPDEST PUSH1 0x0 PUSH2 0x22DE DUP3 PUSH2 0x15FD JUMP JUMPDEST SWAP2 POP PUSH32 0xFFFFFFFFFFFFFFFFFFFFFFFFFFFFFFFFFFFFFFFFFFFFFFFFFFFFFFFFFFFFFFFF DUP3 SUB PUSH2 0x2310 JUMPI PUSH2 0x230F PUSH2 0x22A4 JUMP JUMPDEST JUMPDEST PUSH1 0x1 DUP3 ADD SWAP1 POP SWAP2 SWAP1 POP JUMP JUMPDEST PUSH32 0x4F6E6C79206F776E657200000000000000000000000000000000000000000000 PUSH1 0x0 DUP3 ADD MSTORE POP JUMP JUMPDEST PUSH1 0x0 PUSH2 0x2351 PUSH1 0xA DUP4 PUSH2 0x156C JUMP JUMPDEST SWAP2 POP PUSH2 0x235C DUP3 PUSH2 0x231B JUMP JUMPDEST PUSH1 0x20 DUP3 ADD SWAP1 POP SWAP2 SWAP1 POP JUMP JUMPDEST PUSH1 0x0 PUSH1 0x20 DUP3 ADD SWAP1 POP DUP2 DUP2 SUB PUSH1 0x0 DUP4 ADD MSTORE PUSH2 0x2380 DUP2 PUSH2 0x2344 JUMP JUMPDEST SWAP1 POP SWAP2 SWAP1 POP JUMP JUMPDEST PUSH32 0x496E76616C696420707269636500000000000000000000000000000000000000 PUSH1 0x0 DUP3 ADD MSTORE POP JUMP JUMPDEST PUSH1 0x0 PUSH2 0x23BD PUSH1 0xD DUP4 PUSH2 0x156C JUMP JUMPDEST SWAP2 POP PUSH2 0x23C8 DUP3 PUSH2 0x2387 JUMP JUMPDEST PUSH1 0x20 DUP3 ADD SWAP1 POP SWAP2 SWAP1 POP JUMP JUMPDEST PUSH1 0x0 PUSH1 0x20 DUP3 ADD SWAP1 POP DUP2 DUP2 SUB PUSH1 0x0 DUP4 ADD MSTORE PUSH2 0x23EC DUP2 PUSH2 0x23B0 JUMP JUMPDEST SWAP1 POP SWAP2 SWAP1 POP JUMP JUMPDEST PUSH32 0x4E6F746520616C72656164792064656C65746564000000000000000000000000 PUSH1 0x0 DUP3 ADD MSTORE POP JUMP JUMPDEST PUSH1 0x0 PUSH2 0x2429 PUSH1 0x14 DUP4 PUSH2 0x156C JUMP JUMPDEST SWAP2 POP PUSH2 0x2434 DUP3 PUSH2 0x23F3 JUMP JUMPDEST PUSH1 0x20 DUP3 ADD SWAP1 POP SWAP2 SWAP1 POP JUMP JUMPDEST PUSH1 0x0 PUSH1 0x20 DUP3 ADD SWAP1 POP DUP2 DUP2 SUB PUSH1 0x0 DUP4 ADD MSTORE PUSH2 0x2458 DUP2 PUSH2 0x241C JUMP JUMPDEST SWAP1 POP SWAP2 SWAP1 POP JUMP JUMPDEST PUSH32 0x49636F6E206E6F7420617661696C61626C650000000000000000000000000000 PUSH1 0x0 DUP3 ADD MSTORE POP JUMP JUMPDEST PUSH1 0x0 PUSH2 0x2495 PUSH1 0x12 DUP4 PUSH2 0x156C JUMP JUMPDEST SWAP2 POP PUSH2 0x24A0 DUP3 PUSH2 0x245F JUMP JUMPDEST PUSH1 0x20 DUP3 ADD SWAP1 POP SWAP2 SWAP1 POP JUMP JUMPDEST PUSH1 0x0 PUSH1 0x20 DUP3 ADD SWAP1 POP DUP2 DUP2 SUB PUSH1 0x0 DUP4 ADD MSTORE PUSH2 0x24C4 DUP2 PUSH2 0x2488 JUMP JUMPDEST SWAP1 POP SWAP2 SWAP1 POP JUMP JUMPDEST PUSH32 0x496E73756666696369656E74207061796D656E74000000000000000000000000 PUSH1 0x0 DUP3 ADD MSTORE POP JUMP JUMPDEST PUSH1 0x0 PUSH2 0x2501 PUSH1 0x14 DUP4 PUSH2 0x156C JUMP JUMPDEST SWAP2 POP PUSH2 0x250C DUP3 PUSH2 0x24CB JUMP JUMPDEST PUSH1 0x20 DUP3 ADD SWAP1 POP SWAP2 SWAP1 POP JUMP JUMPDEST PUSH1 0x0 PUSH1 0x20 DUP3 ADD SWAP1 POP DUP2 DUP2 SUB PUSH1 0x0 DUP4 ADD MSTORE PUSH2 0x2530 DUP2 PUSH2 0x24F4 JUMP JUMPDEST SWAP1 POP SWAP2 SWAP1 POP JUMP JUMPDEST PUSH32 0x496E76616C696420726563697069656E74000000000000000000000000000000 PUSH1 0x0 DUP3 ADD MSTORE POP JUMP JUMPDEST PUSH1 0x0 PUSH2 0x256D PUSH1 0x11 DUP4 PUSH2 0x156C JUMP JUMPDEST SWAP2 POP PUSH2 0x2578 DUP3 PUSH2 0x2537 JUMP JUMPDEST PUSH1 0x20 DUP3 ADD SWAP1 POP SWAP2 SWAP1 POP JUMP JUMPDEST PUSH1 0x0 PUSH1 0x20 DUP3 ADD SWAP1 POP DUP2 DUP2 SUB PUSH1 0x0 DUP4 ADD MSTORE PUSH2 0x259C DUP2 PUSH2 0x2560 JUMP JUMPDEST SWAP1 POP SWAP2 SWAP1 POP JUMP JUMPDEST PUSH1 0x0 DUP2 SWAP1 POP SWAP3 SWAP2 POP POP JUMP JUMPDEST POP JUMP JUMPDEST PUSH1 0x0 PUSH2 0x25BE PUSH1 0x0 DUP4 PUSH2 0x25A3 JUMP JUMPDEST SWAP2 POP PUSH2 0x25C9 DUP3 PUSH2 0x25AE JUMP JUMPDEST PUSH1 0x0 DUP3 ADD SWAP1 POP SWAP2 SWAP1 POP JUMP JUMPDEST PUSH1 0x0 PUSH2 0x25DF DUP3 PUSH2 0x25B1 JUMP JUMPDEST SWAP2 POP DUP2 SWAP1 POP SWAP2 SWAP1 POP JUMP JUMPDEST PUSH32 0x5061796D656E74206661696C6564000000000000000000000000000000000000 PUSH1 0x0 DUP3 ADD MSTORE POP JUMP JUMPDEST PUSH1 0x0 PUSH2 0x261F PUSH1 0xE DUP4 PUSH2 0x156C JUMP JUMPDEST SWAP2 POP PUSH2 0x262A DUP3 PUSH2 0x25E9 JUMP JUMPDEST PUSH1 0x20 DUP3 ADD SWAP1 POP SWAP2 SWAP1 POP JUMP JUMPDEST PUSH1 0x0 PUSH1 0x20 DUP3 ADD SWAP1 POP DUP2 DUP2 SUB PUSH1 0x0 DUP4 ADD MSTORE PUSH2 0x264E DUP2 PUSH2 0x2612 JUMP JUMPDEST SWAP1 POP SWAP2 SWAP1 POP JUMP JUMPDEST PUSH1 0x0 PUSH2 0x2660 DUP3 PUSH2 0x15FD JUMP JUMPDEST SWAP2 POP PUSH2 0x266B DUP4 PUSH2 0x15FD JUMP JUMPDEST SWAP3 POP DUP3 DUP3 SUB SWAP1 POP DUP2 DUP2 GT ISZERO PUSH2 0x2683 JUMPI PUSH2 0x2682 PUSH2 0x22A4 JUMP JUMPDEST JUMPDEST SWAP3 SWAP2 POP POP JUMP JUMPDEST PUSH32 0x526566756E64206661696C656400000000000000000000000000000000000000 PUSH1 0x0 DUP3 ADD MSTORE POP JUMP JUMPDEST PUSH1 0x0 PUSH2 0x26BF PUSH1 0xD DUP4 PUSH2 0x156C JUMP JUMPDEST SWAP2 POP PUSH2 0x26CA DUP3 PUSH2 0x2689 JUMP JUMPDEST PUSH1 0x20 DUP3 ADD SWAP1 POP SWAP2 SWAP1 POP JUMP JUMPDEST PUSH1 0x0 PUSH1 0x20 DUP3 ADD SWAP1 POP DUP2 DUP2 SUB PUSH1 0x0 DUP4 ADD MSTORE PUSH2 0x26EE DUP2 PUSH2 0x26B2 JUMP JUMPDEST SWAP1 POP SWAP2 SWAP1 POP JUMP JUMPDEST PUSH2 0x26FE DUP2 PUSH2 0x16C5 JUMP JUMPDEST DUP3 MSTORE POP POP JUMP JUMPDEST PUSH1 0x0 PUSH1 0x40 DUP3 ADD SWAP1 POP PUSH2 0x2719 PUSH1 0x0 DUP4 ADD DUP6 PUSH2 0x26F5 JUMP JUMPDEST PUSH2 0x2726 PUSH1 0x20 DUP4 ADD DUP5 PUSH2 0x1771 JUMP JUMPDEST SWAP4 SWAP3 POP POP POP JUMP INVALID LOG2 PUSH5 0x6970667358 0x22 SLT KECCAK256 0xAA SLT SWAP9 SWAP5 CALLDATACOPY ADDRESS CALLER SWAP14 ISZERO EXP 0xFC SELFDESTRUCT PC 0xB3 STOP 0x5F EXP DUP8 0x4C 0xE8 0xC 0x4E 0xA9 0xBF RETURNDATACOPY PUSH9 0x5B3D3E1FDACE64736F PUSH13 0x63430008130033000000000000 "},"methodIdentifiers":{"addIcon(uint8,uint256)":"d506e7a1","buyAndSendIcon(uint256,address)":"ca13b6dd","deleteNote(uint256)":"c47177f4","getIcon(uint256)":"2a1a5446","getMyReceivedIcons()":"3781b90b","getNote(uint256)":"a965a941","iconCount()":"2d2b4a01","noteCount()":"317a4c76","owner()":"8da5cb5b","readEncryptedNote(uint256)":"43f603d7","sendEncryptedNote(address,string)":"55173d7f","setIconAvailability(uint256,bool)":"c760f4d1","updateIconPrice(uint256,uint256)":"b60ace0f"}}}}}